{
  "_format": "hh3-artifact-1",
  "contractName": "EnergyCertificate",
  "sourceName": "contracts/EnergyCertificate.sol",
  "abi": [
    {
      "inputs": [],
      "stateMutability": "nonpayable",
      "type": "constructor"
    },
    {
      "inputs": [
        {
          "internalType": "address",
          "name": "sender",
          "type": "address"
        },
        {
          "internalType": "uint256",
          "name": "tokenId",
          "type": "uint256"
        },
        {
          "internalType": "address",
          "name": "owner",
          "type": "address"
        }
      ],
      "name": "ERC721IncorrectOwner",
      "type": "error"
    },
    {
      "inputs": [
        {
          "internalType": "address",
          "name": "operator",
          "type": "address"
        },
        {
          "internalType": "uint256",
          "name": "tokenId",
          "type": "uint256"
        }
      ],
      "name": "ERC721InsufficientApproval",
      "type": "error"
    },
    {
      "inputs": [
        {
          "internalType": "address",
          "name": "approver",
          "type": "address"
        }
      ],
      "name": "ERC721InvalidApprover",
      "type": "error"
    },
    {
      "inputs": [
        {
          "internalType": "address",
          "name": "operator",
          "type": "address"
        }
      ],
      "name": "ERC721InvalidOperator",
      "type": "error"
    },
    {
      "inputs": [
        {
          "internalType": "address",
          "name": "owner",
          "type": "address"
        }
      ],
      "name": "ERC721InvalidOwner",
      "type": "error"
    },
    {
      "inputs": [
        {
          "internalType": "address",
          "name": "receiver",
          "type": "address"
        }
      ],
      "name": "ERC721InvalidReceiver",
      "type": "error"
    },
    {
      "inputs": [
        {
          "internalType": "address",
          "name": "sender",
          "type": "address"
        }
      ],
      "name": "ERC721InvalidSender",
      "type": "error"
    },
    {
      "inputs": [
        {
          "internalType": "uint256",
          "name": "tokenId",
          "type": "uint256"
        }
      ],
      "name": "ERC721NonexistentToken",
      "type": "error"
    },
    {
      "inputs": [
        {
          "internalType": "address",
          "name": "owner",
          "type": "address"
        }
      ],
      "name": "OwnableInvalidOwner",
      "type": "error"
    },
    {
      "inputs": [
        {
          "internalType": "address",
          "name": "account",
          "type": "address"
        }
      ],
      "name": "OwnableUnauthorizedAccount",
      "type": "error"
    },
    {
      "inputs": [
        {
          "internalType": "uint256",
          "name": "value",
          "type": "uint256"
        },
        {
          "internalType": "uint256",
          "name": "length",
          "type": "uint256"
        }
      ],
      "name": "StringsInsufficientHexLength",
      "type": "error"
    },
    {
      "anonymous": false,
      "inputs": [
        {
          "indexed": true,
          "internalType": "address",
          "name": "owner",
          "type": "address"
        },
        {
          "indexed": true,
          "internalType": "address",
          "name": "approved",
          "type": "address"
        },
        {
          "indexed": true,
          "internalType": "uint256",
          "name": "tokenId",
          "type": "uint256"
        }
      ],
      "name": "Approval",
      "type": "event"
    },
    {
      "anonymous": false,
      "inputs": [
        {
          "indexed": true,
          "internalType": "address",
          "name": "owner",
          "type": "address"
        },
        {
          "indexed": true,
          "internalType": "address",
          "name": "operator",
          "type": "address"
        },
        {
          "indexed": false,
          "internalType": "bool",
          "name": "approved",
          "type": "bool"
        }
      ],
      "name": "ApprovalForAll",
      "type": "event"
    },
    {
      "anonymous": false,
      "inputs": [
        {
          "indexed": true,
          "internalType": "uint256",
          "name": "tokenId",
          "type": "uint256"
        },
        {
          "indexed": true,
          "internalType": "address",
          "name": "consumer",
          "type": "address"
        },
        {
          "indexed": true,
          "internalType": "address",
          "name": "producer",
          "type": "address"
        },
        {
          "indexed": false,
          "internalType": "uint256",
          "name": "amount",
          "type": "uint256"
        }
      ],
      "name": "CertificateMinted",
      "type": "event"
    },
    {
      "anonymous": false,
      "inputs": [
        {
          "indexed": true,
          "internalType": "address",
          "name": "previousOwner",
          "type": "address"
        },
        {
          "indexed": true,
          "internalType": "address",
          "name": "newOwner",
          "type": "address"
        }
      ],
      "name": "OwnershipTransferred",
      "type": "event"
    },
    {
      "anonymous": false,
      "inputs": [
        {
          "indexed": true,
          "internalType": "address",
          "name": "from",
          "type": "address"
        },
        {
          "indexed": true,
          "internalType": "address",
          "name": "to",
          "type": "address"
        },
        {
          "indexed": true,
          "internalType": "uint256",
          "name": "tokenId",
          "type": "uint256"
        }
      ],
      "name": "Transfer",
      "type": "event"
    },
    {
      "inputs": [
        {
          "internalType": "address",
          "name": "to",
          "type": "address"
        },
        {
          "internalType": "uint256",
          "name": "tokenId",
          "type": "uint256"
        }
      ],
      "name": "approve",
      "outputs": [],
      "stateMutability": "nonpayable",
      "type": "function"
    },
    {
      "inputs": [
        {
          "internalType": "address",
          "name": "",
          "type": "address"
        }
      ],
      "name": "authorizedMinters",
      "outputs": [
        {
          "internalType": "bool",
          "name": "",
          "type": "bool"
        }
      ],
      "stateMutability": "view",
      "type": "function"
    },
    {
      "inputs": [
        {
          "internalType": "address",
          "name": "owner",
          "type": "address"
        }
      ],
      "name": "balanceOf",
      "outputs": [
        {
          "internalType": "uint256",
          "name": "",
          "type": "uint256"
        }
      ],
      "stateMutability": "view",
      "type": "function"
    },
    {
      "inputs": [
        {
          "internalType": "uint256",
          "name": "",
          "type": "uint256"
        }
      ],
      "name": "certificates",
      "outputs": [
        {
          "internalType": "uint256",
          "name": "amount",
          "type": "uint256"
        },
        {
          "internalType": "address",
          "name": "producer",
          "type": "address"
        },
        {
          "internalType": "uint256",
          "name": "timestamp",
          "type": "uint256"
        }
      ],
      "stateMutability": "view",
      "type": "function"
    },
    {
      "inputs": [
        {
          "internalType": "uint256",
          "name": "tokenId",
          "type": "uint256"
        }
      ],
      "name": "getApproved",
      "outputs": [
        {
          "internalType": "address",
          "name": "",
          "type": "address"
        }
      ],
      "stateMutability": "view",
      "type": "function"
    },
    {
      "inputs": [
        {
          "internalType": "address",
          "name": "owner",
          "type": "address"
        },
        {
          "internalType": "address",
          "name": "operator",
          "type": "address"
        }
      ],
      "name": "isApprovedForAll",
      "outputs": [
        {
          "internalType": "bool",
          "name": "",
          "type": "bool"
        }
      ],
      "stateMutability": "view",
      "type": "function"
    },
    {
      "inputs": [
        {
          "internalType": "address",
          "name": "consumer",
          "type": "address"
        },
        {
          "internalType": "address",
          "name": "producer",
          "type": "address"
        },
        {
          "internalType": "uint256",
          "name": "amount",
          "type": "uint256"
        }
      ],
      "name": "mintCertificate",
      "outputs": [
        {
          "internalType": "uint256",
          "name": "",
          "type": "uint256"
        }
      ],
      "stateMutability": "nonpayable",
      "type": "function"
    },
    {
      "inputs": [],
      "name": "name",
      "outputs": [
        {
          "internalType": "string",
          "name": "",
          "type": "string"
        }
      ],
      "stateMutability": "view",
      "type": "function"
    },
    {
      "inputs": [],
      "name": "owner",
      "outputs": [
        {
          "internalType": "address",
          "name": "",
          "type": "address"
        }
      ],
      "stateMutability": "view",
      "type": "function"
    },
    {
      "inputs": [
        {
          "internalType": "uint256",
          "name": "tokenId",
          "type": "uint256"
        }
      ],
      "name": "ownerOf",
      "outputs": [
        {
          "internalType": "address",
          "name": "",
          "type": "address"
        }
      ],
      "stateMutability": "view",
      "type": "function"
    },
    {
      "inputs": [],
      "name": "renounceOwnership",
      "outputs": [],
      "stateMutability": "nonpayable",
      "type": "function"
    },
    {
      "inputs": [
        {
          "internalType": "address",
          "name": "from",
          "type": "address"
        },
        {
          "internalType": "address",
          "name": "to",
          "type": "address"
        },
        {
          "internalType": "uint256",
          "name": "tokenId",
          "type": "uint256"
        }
      ],
      "name": "safeTransferFrom",
      "outputs": [],
      "stateMutability": "nonpayable",
      "type": "function"
    },
    {
      "inputs": [
        {
          "internalType": "address",
          "name": "from",
          "type": "address"
        },
        {
          "internalType": "address",
          "name": "to",
          "type": "address"
        },
        {
          "internalType": "uint256",
          "name": "tokenId",
          "type": "uint256"
        },
        {
          "internalType": "bytes",
          "name": "data",
          "type": "bytes"
        }
      ],
      "name": "safeTransferFrom",
      "outputs": [],
      "stateMutability": "nonpayable",
      "type": "function"
    },
    {
      "inputs": [
        {
          "internalType": "address",
          "name": "operator",
          "type": "address"
        },
        {
          "internalType": "bool",
          "name": "approved",
          "type": "bool"
        }
      ],
      "name": "setApprovalForAll",
      "outputs": [],
      "stateMutability": "nonpayable",
      "type": "function"
    },
    {
      "inputs": [
        {
          "internalType": "address",
          "name": "minter",
          "type": "address"
        },
        {
          "internalType": "bool",
          "name": "authorized",
          "type": "bool"
        }
      ],
      "name": "setAuthorizedMinter",
      "outputs": [],
      "stateMutability": "nonpayable",
      "type": "function"
    },
    {
      "inputs": [
        {
          "internalType": "bytes4",
          "name": "interfaceId",
          "type": "bytes4"
        }
      ],
      "name": "supportsInterface",
      "outputs": [
        {
          "internalType": "bool",
          "name": "",
          "type": "bool"
        }
      ],
      "stateMutability": "view",
      "type": "function"
    },
    {
      "inputs": [],
      "name": "symbol",
      "outputs": [
        {
          "internalType": "string",
          "name": "",
          "type": "string"
        }
      ],
      "stateMutability": "view",
      "type": "function"
    },
    {
      "inputs": [
        {
          "internalType": "uint256",
          "name": "tokenId",
          "type": "uint256"
        }
      ],
      "name": "tokenURI",
      "outputs": [
        {
          "internalType": "string",
          "name": "",
          "type": "string"
        }
      ],
      "stateMutability": "view",
      "type": "function"
    },
    {
      "inputs": [
        {
          "internalType": "address",
          "name": "from",
          "type": "address"
        },
        {
          "internalType": "address",
          "name": "to",
          "type": "address"
        },
        {
          "internalType": "uint256",
          "name": "tokenId",
          "type": "uint256"
        }
      ],
      "name": "transferFrom",
      "outputs": [],
      "stateMutability": "nonpayable",
      "type": "function"
    },
    {
      "inputs": [
        {
          "internalType": "address",
          "name": "newOwner",
          "type": "address"
        }
      ],
      "name": "transferOwnership",
      "outputs": [],
      "stateMutability": "nonpayable",
      "type": "function"
    }
  ],
  "bytecode": "0x608060405234801561000f575f5ffd5b50336040518060400160405280601c81526020017f52656e657761626c6520456e65726779204365727469666963617465000000008152506040518060400160405280600381526020016252454360e81b815250815f908161007191906101ab565b50600161007e82826101ab565b5050506001600160a01b0381166100ae57604051631e4fbdf760e01b81525f600482015260240160405180910390fd5b6100b7816100c2565b506001600755610265565b600680546001600160a01b038381166001600160a01b0319831681179093556040519116919082907f8be0079c531659141344cd1fd0a4f28419497f9722a3daafe3b4186f6b6457e0905f90a35050565b634e487b7160e01b5f52604160045260245ffd5b600181811c9082168061013b57607f821691505b60208210810361015957634e487b7160e01b5f52602260045260245ffd5b50919050565b601f8211156101a657805f5260205f20601f840160051c810160208510156101845750805b601f840160051c820191505b818110156101a3575f8155600101610190565b50505b505050565b81516001600160401b038111156101c4576101c4610113565b6101d8816101d28454610127565b8461015f565b6020601f82116001811461020a575f83156101f35750848201515b5f19600385901b1c1916600184901b1784556101a3565b5f84815260208120601f198516915b828110156102395787850151825560209485019460019092019101610219565b508482101561025657868401515f19600387901b60f8161c191681555b50505050600190811b01905550565b612edf806102725f395ff3fe608060405234801561000f575f5ffd5b5060043610610127575f3560e01c80638da5cb5b116100a9578063ba0cc2301161006e578063ba0cc230146102c5578063c87b56dd146102d8578063e985e9c5146102eb578063ed58bad8146102fe578063f2fde38b14610311575f5ffd5b80638da5cb5b1461026457806395d89b4114610275578063a22cb4651461027d578063aa2fe91b14610290578063b88d4fde146102b2575f5ffd5b806342842e0e116100ef57806342842e0e146101bb5780636352211e146101ce578063663b3e22146101e157806370a082311461023b578063715018a61461025c575f5ffd5b806301ffc9a71461012b57806306fdde0314610153578063081812fc14610168578063095ea7b31461019357806323b872dd146101a8575b5f5ffd5b61013e610139366004611bfb565b610324565b60405190151581526020015b60405180910390f35b61015b610375565b60405161014a9190611c4b565b61017b610176366004611c5d565b610404565b6040516001600160a01b03909116815260200161014a565b6101a66101a1366004611c8a565b61042b565b005b6101a66101b6366004611cb2565b61043a565b6101a66101c9366004611cb2565b6104c8565b61017b6101dc366004611c5d565b6104e7565b6102186101ef366004611c5d565b60086020525f908152604090208054600182015460029092015490916001600160a01b03169083565b604080519384526001600160a01b0390921660208401529082015260600161014a565b61024e610249366004611cec565b6104f1565b60405190815260200161014a565b6101a6610536565b6006546001600160a01b031661017b565b61015b610549565b6101a661028b366004611d05565b610558565b61013e61029e366004611cec565b60096020525f908152604090205460ff1681565b6101a66102c0366004611d52565b610563565b61024e6102d3366004611cb2565b61057b565b61015b6102e6366004611c5d565b6106b2565b61013e6102f9366004611e2f565b610757565b6101a661030c366004611d05565b610784565b6101a661031f366004611cec565b6107b6565b5f6001600160e01b031982166380ac58cd60e01b148061035457506001600160e01b03198216635b5e139f60e01b145b8061036f57506301ffc9a760e01b6001600160e01b03198316145b92915050565b60605f805461038390611e60565b80601f01602080910402602001604051908101604052809291908181526020018280546103af90611e60565b80156103fa5780601f106103d1576101008083540402835291602001916103fa565b820191905f5260205f20905b8154815290600101906020018083116103dd57829003601f168201915b5050505050905090565b5f61040e826107f3565b505f828152600460205260409020546001600160a01b031661036f565b61043682823361082b565b5050565b6001600160a01b03821661046857604051633250574960e11b81525f60048201526024015b60405180910390fd5b5f610474838333610838565b9050836001600160a01b0316816001600160a01b0316146104c2576040516364283d7b60e01b81526001600160a01b038086166004830152602482018490528216604482015260640161045f565b50505050565b6104e283838360405180602001604052805f815250610563565b505050565b5f61036f826107f3565b5f6001600160a01b03821661051b576040516322718ad960e21b81525f600482015260240161045f565b506001600160a01b03165f9081526003602052604090205490565b61053e61092a565b6105475f610957565b565b60606001805461038390611e60565b6104363383836109a8565b61056e84848461043a565b6104c23385858585610a6f565b335f9081526009602052604081205460ff166105e55760405162461bcd60e51b815260206004820152602360248201527f4e6f7420617574686f72697a656420746f206d696e742063657274696669636160448201526274657360e81b606482015260840161045f565b600780545f91826105f583611eac565b90915550604080516060810182528581526001600160a01b038781166020808401918252428486019081525f878152600890925294902092518355516001830180546001600160a01b031916919092161790559051600290910155905061065c8582610b97565b836001600160a01b0316856001600160a01b0316827f4d11bba94ed08338c093ab404c84f6c0615c1b51439f9b666edd217b326ce9b6866040516106a291815260200190565b60405180910390a4949350505050565b60606106bd826107f3565b505f82815260086020908152604080832081516060810183528154815260018201546001600160a01b031693810193909352600201549082015290610701846104e7565b90505f610710835f0151610bb0565b90505f61071f86858585610eae565b905061072d86858484610fcb565b60405160200161073d9190611edb565b604051602081830303815290604052945050505050919050565b6001600160a01b039182165f90815260056020908152604080832093909416825291909152205460ff1690565b61078c61092a565b6001600160a01b03919091165f908152600960205260409020805460ff1916911515919091179055565b6107be61092a565b6001600160a01b0381166107e757604051631e4fbdf760e01b81525f600482015260240161045f565b6107f081610957565b50565b5f818152600260205260408120546001600160a01b03168061036f57604051637e27328960e01b81526004810184905260240161045f565b6104e2838383600161110b565b5f828152600260205260408120546001600160a01b03908116908316156108645761086481848661120f565b6001600160a01b0381161561089e5761087f5f855f5f61110b565b6001600160a01b0381165f90815260036020526040902080545f190190555b6001600160a01b038516156108cc576001600160a01b0385165f908152600360205260409020805460010190555b5f8481526002602052604080822080546001600160a01b0319166001600160a01b0389811691821790925591518793918516917fddf252ad1be2c89b69c2b068fc378daa952ba7f163c4a11628f55a4df523b3ef91a4949350505050565b6006546001600160a01b031633146105475760405163118cdaa760e01b815233600482015260240161045f565b600680546001600160a01b038381166001600160a01b0319831681179093556040519116919082907f8be0079c531659141344cd1fd0a4f28419497f9722a3daafe3b4186f6b6457e0905f90a35050565b6001600160a01b0383166109d15760405163a9fbf51f60e01b81525f600482015260240161045f565b6001600160a01b038216610a0357604051630b61174360e31b81526001600160a01b038316600482015260240161045f565b6001600160a01b038381165f81815260056020908152604080832094871680845294825291829020805460ff191686151590811790915591519182527f17307eab39ab6107e8899845ad3d59bd9653f200f220920489ca2b5937696c31910160405180910390a3505050565b6001600160a01b0383163b15610b9057604051630a85bd0160e11b81526001600160a01b0384169063150b7a0290610ab1908890889087908790600401611f0c565b6020604051808303815f875af1925050508015610aeb575060408051601f3d908101601f19168201909252610ae891810190611f48565b60015b610b52573d808015610b18576040519150601f19603f3d011682016040523d82523d5f602084013e610b1d565b606091505b5080515f03610b4a57604051633250574960e11b81526001600160a01b038516600482015260240161045f565b805160208201fd5b6001600160e01b03198116630a85bd0160e11b14610b8e57604051633250574960e11b81526001600160a01b038516600482015260240161045f565b505b5050505050565b610436828260405180602001604052805f815250611273565b610be26040518060a0016040528060608152602001606081526020016060815260200160608152602001606081525090565b60328211610c965750506040805160e081018252600660a082019081526542726f6e7a6560d01b60c08301528152815180830183526007808252662330663137326160c81b6020838101919091528084019290925283518085018552818152661198b2991c99b160c91b818401528385015283518085018552818152660466060cccc70760cb1b8184015260608401528351808501909452835266119c309ab1b31b60c91b90830152608081019190915290565b60c88211610d4a5750506040805160e081018252600660a082019081526529b4b63b32b960d11b60c08301528152815180830183526007808252662330663137326160c81b6020838101919091528084019290925283518085018552818152662333333431353560c81b818401528385015283518085018552818152660236532653866360cc1b81840152606084015283518085019094528352660467268c266c4760cb1b90830152608081019190915290565b6101f48211610dfd5750506040805160e081018252600460a082019081526311dbdb1960e21b60c08301528152815180830183526007808252662332653135303360c81b602083810191909152808401929092528351808501855281815266119a191918181b60c91b818401528385015283518085018552818152660236666643730360cc1b818401526060840152835180850190945283526611b31c9b99989b60c91b90830152608081019190915290565b50506040805160e081018252600760a0820181815266111a585b5bdb9960ca1b60c0840152825282518084018452818152662330383266343960c81b6020828101919091528084019190915283518085018552828152662330633461366560c81b818301528385015283518085018552828152660466670c4c8cc760cb1b818301526060840152835180850190945290835266046706270c6cc760cb1b90830152608081019190915290565b919050565b60605f6040518060a00160405280610edd610ed588602001516001600160a01b031661128a565b5f60086112a0565b8152602001610ef7610ed5876001600160a01b031661128a565b8152602001610f08875f0151611361565b8152602001610f1a8760400151611361565b8152602001610f2888611361565b905290505f610f36846113f1565b610f3f856114a2565b604051602001610f50929190611f63565b60405160208183030381529060405290505f610f708584604001516114cf565b610f7a86856115ce565b604051602001610f8b929190611f63565b60405160208183030381529060405290508181604051602001610faf929190611f63565b6040516020818303038152906040529350505050949350505050565b60605f610fd786611361565b604051602001610fe79190611f77565b60405160208183030381529060405290505f845f015160405160200161100d919061202e565b60405160208183030381529060405290505f61102b875f0151611361565b60405160200161103b91906120b5565b60405160208183030381529060405290505f61105a8860400151611361565b60405160200161106a919061210b565b60405160208183030381529060405290505f6110858761174d565b6040516020016110959190612173565b60405160208183030381529060405290505f8585856040516020016110bc939291906121c6565b60405160208183030381529060405290508083836040516020016110e2939291906121c6565b60405160208183030381529060405290506110fc8161174d565b9b9a5050505050505050505050565b808061111f57506001600160a01b03821615155b156111e0575f61112e846107f3565b90506001600160a01b0383161580159061115a5750826001600160a01b0316816001600160a01b031614155b801561116d575061116b8184610757565b155b156111965760405163a9fbf51f60e01b81526001600160a01b038416600482015260240161045f565b81156111de5783856001600160a01b0316826001600160a01b03167f8c5be1e5ebec7d5bd14f71427d1e84f3dd0314c0f7b2291e5b200ac8c7c3b92560405160405180910390a45b505b50505f90815260046020526040902080546001600160a01b0319166001600160a01b0392909216919091179055565b61121a838383611759565b6104e2576001600160a01b03831661124857604051637e27328960e01b81526004810182905260240161045f565b60405163177e802f60e01b81526001600160a01b03831660048201526024810182905260440161045f565b61127d83836117bd565b6104e2335f858585610a6f565b606061036f6001600160a01b038316601461181e565b6060835f6112ae85856121e6565b67ffffffffffffffff8111156112c6576112c6611d3e565b6040519080825280601f01601f1916602001820160405280156112f0576020820181803683370190505b509050845b848110156113575782818151811061130f5761130f6121f9565b01602001516001600160f81b0319168261132988846121e6565b81518110611339576113396121f9565b60200101906001600160f81b03191690815f1a9053506001016112f5565b5095945050505050565b60605f61136d83611990565b60010190505f8167ffffffffffffffff81111561138c5761138c611d3e565b6040519080825280601f01601f1916602001820160405280156113b6576020820181803683370190505b5090508181016020015b5f19016f181899199a1a9b1b9c1cb0b131b232b360811b600a86061a8153600a85049450846113c057509392505050565b60605f8260200151604051602001611409919061220d565b60405160208183030381529060405290505f8360400151846020015160405160200161143692919061231a565b60405160208183030381529060405290505f846060015185608001516040516020016114639291906123ad565b6040516020818303038152906040529050828282604051602001611489939291906121c6565b6040516020818303038152906040529350505050919050565b606081606001516040516020016114b9919061242a565b6040516020818303038152906040529050919050565b608082015182516040516060925f926114ea926020016125e2565b60405160208183030381529060405290505f8460800151604051602001611511919061269a565b60405160208183030381529060405290505f85606001516040516020016115389190612778565b60405160208183030381529060405290505f866060015160405160200161155f9190612845565b60405160208183030381529060405290505f86886080015160405160200161158892919061290e565b604051602081830303815290604052905084848484846040516020016115b29594939291906129f3565b6040516020818303038152906040529550505050505092915050565b60605f6040516020016116ac907f3c7265637420783d2232352220793d22333230222077696474683d223335302281527f206865696768743d22313430222066696c6c3d227267626128302c302c302c3060208201527f2e3429222072783d2238222f3e3c7465787420783d2234302220793d2233353060408201527f2220666f6e742d66616d696c793d226d6f6e6f73706163652220666f6e742d7360608201527f697a653d223132222066696c6c3d2223393461336238223e434552542049443a6080820152661e17ba32bc3a1f60c91b60a082015260a70190565b60405160208183030381529060405290505f846060015184608001516040516020016116d9929190612a21565b60405160208183030381529060405290505f845f01516040516020016116ff9190612b33565b60405160208183030381529060405290505f85602001516040516020016117269190612c26565b60405160208183030381529060405290505f86606001516040516020016115889190612d1a565b606061036f825f611a67565b5f6001600160a01b038316158015906117b55750826001600160a01b0316846001600160a01b0316148061179257506117928484610757565b806117b557505f828152600460205260409020546001600160a01b038481169116145b949350505050565b6001600160a01b0382166117e657604051633250574960e11b81525f600482015260240161045f565b5f6117f283835f610838565b90506001600160a01b038116156104e2576040516339e3563760e11b81525f600482015260240161045f565b6060825f61182d846002612e4b565b611838906002612e62565b67ffffffffffffffff81111561185057611850611d3e565b6040519080825280601f01601f19166020018201604052801561187a576020820181803683370190505b509050600360fc1b815f81518110611894576118946121f9565b60200101906001600160f81b03191690815f1a905350600f60fb1b816001815181106118c2576118c26121f9565b60200101906001600160f81b03191690815f1a9053505f6118e4856002612e4b565b6118ef906001612e62565b90505b6001811115611966576f181899199a1a9b1b9c1cb0b131b232b360811b83600f1660108110611923576119236121f9565b1a60f81b828281518110611939576119396121f9565b60200101906001600160f81b03191690815f1a90535060049290921c9161195f81612e75565b90506118f2565b5081156117b55760405163e22e27eb60e01b8152600481018690526024810185905260440161045f565b5f8072184f03e93ff9f4daa797ed6e38ed64bf6a1f0160401b83106119ce5772184f03e93ff9f4daa797ed6e38ed64bf6a1f0160401b830492506040015b6d04ee2d6d415b85acef810000000083106119fa576d04ee2d6d415b85acef8100000000830492506020015b662386f26fc100008310611a1857662386f26fc10000830492506010015b6305f5e1008310611a30576305f5e100830492506008015b6127108310611a4457612710830492506004015b60648310611a56576064830492506002015b600a831061036f5760010192915050565b606082515f03611a85575060408051602081019091525f815261036f565b5f82611ab557600384516002611a9b9190612e62565b611aa59190612e8a565b611ab0906004612e4b565b611ada565b600384516004611ac59190612e4b565b611ad0906002612e62565b611ada9190612e8a565b905060405191507f4142434445464748494a4b4c4d4e4f505152535455565758595a616263646566601f5261067083027f6768696a6b6c6d6e6f707172737475767778797a303132333435363738392b2f18603f526020820181810185865187016020810180515f82525b82841015611b98576003840193508351603f8160121c16518753600187019650603f81600c1c16518753600187019650603f8160061c16518753600187019650603f811651875350600186019550611b45565b905250859050611bd957600386510660018114611bbc5760028114611bcf57611bd7565b603d6001840353603d6002840353611bd7565b603d60018403535b505b9183525060405292915050565b6001600160e01b0319811681146107f0575f5ffd5b5f60208284031215611c0b575f5ffd5b8135611c1681611be6565b9392505050565b5f81518084528060208401602086015e5f602082860101526020601f19601f83011685010191505092915050565b602081525f611c166020830184611c1d565b5f60208284031215611c6d575f5ffd5b5035919050565b80356001600160a01b0381168114610ea9575f5ffd5b5f5f60408385031215611c9b575f5ffd5b611ca483611c74565b946020939093013593505050565b5f5f5f60608486031215611cc4575f5ffd5b611ccd84611c74565b9250611cdb60208501611c74565b929592945050506040919091013590565b5f60208284031215611cfc575f5ffd5b611c1682611c74565b5f5f60408385031215611d16575f5ffd5b611d1f83611c74565b915060208301358015158114611d33575f5ffd5b809150509250929050565b634e487b7160e01b5f52604160045260245ffd5b5f5f5f5f60808587031215611d65575f5ffd5b611d6e85611c74565b9350611d7c60208601611c74565b925060408501359150606085013567ffffffffffffffff811115611d9e575f5ffd5b8501601f81018713611dae575f5ffd5b803567ffffffffffffffff811115611dc857611dc8611d3e565b604051601f8201601f19908116603f0116810167ffffffffffffffff81118282101715611df757611df7611d3e565b604052818152828201602001891015611e0e575f5ffd5b816020840160208301375f6020838301015280935050505092959194509250565b5f5f60408385031215611e40575f5ffd5b611e4983611c74565b9150611e5760208401611c74565b90509250929050565b600181811c90821680611e7457607f821691505b602082108103611e9257634e487b7160e01b5f52602260045260245ffd5b50919050565b634e487b7160e01b5f52601160045260245ffd5b5f60018201611ebd57611ebd611e98565b5060010190565b5f81518060208401855e5f93019283525090919050565b7f646174613a6170706c69636174696f6e2f6a736f6e3b6261736536342c00000081525f611c16601d830184611ec4565b6001600160a01b03858116825284166020820152604081018390526080606082018190525f90611f3e90830184611c1d565b9695505050505050565b5f60208284031215611f58575f5ffd5b8151611c1681611be6565b5f6117b5611f718386611ec4565b84611ec4565b7f7b226e616d65223a2022477265656e20456e65726779204365727469666963618152637465202360e01b60208201525f611fb56024830184611ec4565b7f222c20226465736372697074696f6e223a20224f6666696369616c206f6e2d6381527f6861696e2070726f6f66206f662072656e657761626c6520656e65726779207060208201527f757263686173652e222c202261747472696275746573223a205b0000000000006040820152605a019392505050565b7f7b2274726169745f74797065223a202254696572222c202276616c7565223a208152601160f91b60208201525f6120696021830184611ec4565b7f227d2c207b2274726169745f74797065223a2022456e6572677920536f75726381527519488b08089d985b1d59488e880894dbdb185c889f4b60521b60208201526036019392505050565b7f7b2274726169745f74797065223a2022416d6f756e7420286b576829222c20228152683b30b63ab2911d101160b91b60208201525f6120f86029830184611ec4565b62089f4b60ea1b81526003019392505050565b7f7b22646973706c61795f74797065223a202264617465222c202274726169745f81527f74797065223a20224d696e742044617465222c202276616c7565223a2000000060208201525f612162603d830184611ec4565b607d60f81b81526001019392505050565b7f5d2c2022696d616765223a2022646174613a696d6167652f7376672b786d6c3b81526618985cd94d8d0b60ca1b60208201525f6121b46027830184611ec4565b61227d60f01b81526002019392505050565b5f6121dd611f716121d78488611ec4565b86611ec4565b95945050505050565b8181038181111561036f5761036f611e98565b634e487b7160e01b5f52603260045260245ffd5b7f3c73766720786d6c6e733d22687474703a2f2f7777772e77332e6f72672f323081527f30302f737667222076696577426f783d2230203020343030203530302220776960208201527f6474683d223130302522206865696768743d2231303025223e0000000000000060408201527f3c646566733e3c6c696e6561724772616469656e742069643d2262672220783160598201527f3d223025222079313d223025222078323d2231303025222079323d2231303025607982015261111f60f11b60998201527f3c73746f70206f66667365743d223025222073746f702d636f6c6f723d220000609b8201525f61230760b9830184611ec4565b6211179f60e91b81526003019392505050565b7f3c73746f70206f66667365743d22353025222073746f702d636f6c6f723d220081525f61234b601f830185611ec4565b6211179f60e91b81527f3c73746f70206f66667365743d2231303025222073746f702d636f6c6f723d2260038201526123876023820185611ec4565b7311179f1e17b634b732b0b923b930b234b2b73a1f60611b815260140195945050505050565b7f3c6c696e6561724772616469656e742069643d227072696d617279222078313d81527f223025222079313d223025222078323d2231303025222079323d223025223e3c60208201527f73746f70206f66667365743d223025222073746f702d636f6c6f723d2200000060408201525f61234b605d830185611ec4565b7f3c7374796c653e406b65796672616d65732070756c7365207b203025207b207381527f74726f6b652d6f7061636974793a20302e353b207d20353025207b207374726f60208201527f6b652d6f7061636974793a20313b207374726f6b652d77696474683a20363b2060408201527f66696c7465723a2064726f702d736861646f772830203020387078200000000060608201525f6124cd607c830184611ec4565b7f293b207d2031303025207b207374726f6b652d6f7061636974793a20302e353b81527f207d207d202e626f72646572207b20616e696d6174696f6e3a2070756c73652060208201527f347320696e66696e69746520656173652d696e2d6f75743b207d3c2f7374796c604082015268329f1e17b232b3399f60b91b60608201527f3c726563742077696474683d2234303022206865696768743d2235303022207260698201527f783d223136222066696c6c3d2275726c282362672922207374726f6b653d227560898201527f726c28237072696d6172792922207374726f6b652d77696474683d223422206360a98201526e3630b9b99e913137b93232b911179f60891b60c982015260d8019392505050565b7f3c7465787420783d223230302220793d2234352220666f6e742d66616d696c7981527f3d226d6f6e6f73706163652220666f6e742d73697a653d223132222066696c6c6020820152611e9160f11b60408201525f6126446042830185611ec4565b7f2220666f6e742d7765696768743d22626f6c642220746578742d616e63686f7281527f3d226d6964646c6522206c65747465722d73706163696e673d2232223e00000060208201526121dd603d820185611ec4565b7f20544945523c2f746578743e3c7465787420783d223230302220793d2236352281527f20666f6e742d66616d696c793d226d6f6e6f73706163652220666f6e742d736960208201526d3d329e91189a11103334b6361e9160911b60408201525f612708604e830184611ec4565b7f2220666f6e742d7765696768743d22626f6c642220746578742d616e63686f7281527f3d226d6964646c6522206c65747465722d73706163696e673d2232223e52454e60208201527322aba0a126229022a722a923ac9e17ba32bc3a1f60611b60408201526054019392505050565b7f3c7465787420783d223230302220793d2238352220666f6e742d66616d696c7981527f3d226d6f6e6f73706163652220666f6e742d73697a653d223230222066696c6c6020820152611e9160f11b60408201525f6127da6042830184611ec4565b7f2220666f6e742d7765696768743d22626f6c642220746578742d616e63686f7281527f3d226d6964646c6522206c65747465722d73706163696e673d2234223e43455260208201526e2a24a324a1a0aa229e17ba32bc3a1f60891b6040820152604f019392505050565b7f3c6c696e652078313d223530222079313d22313035222078323d22333530222081527f79323d2231303522207374726f6b653d2272676261283235352c3235352c323560208201527f352c302e322922207374726f6b652d77696474683d2231222f3e3c746578742060408201527f783d223230302220793d223230302220666f6e742d66616d696c793d2273616e60608201527f732d73657269662220666f6e742d73697a653d223634222066696c6c3d22000060808201525f611c16609e830184611ec4565b7f2220666f6e742d7765696768743d223930302220746578742d616e63686f723d8152681136b4b2323632911f60b91b60208201525f6129516029830185611ec4565b7f3c2f746578743e3c7465787420783d223230302220793d223234302220666f6e81527f742d66616d696c793d226d6f6e6f73706163652220666f6e742d73697a653d22602082015269189c11103334b6361e9160b11b60408201526129ba604a820185611ec4565b7f2220746578742d616e63686f723d226d6964646c65223e6b57683c2f746578748152601f60f91b602082015260210195945050505050565b5f612a16611f716121d7612a10612a0a868c611ec4565b8a611ec4565b88611ec4565b979650505050505050565b7f3c7465787420783d223133302220793d223335302220666f6e742d66616d696c81527f793d226d6f6e6f73706163652220666f6e742d73697a653d223134222066696c602082015262361e9160e91b60408201525f612a846043830185611ec4565b752220666f6e742d7765696768743d22626f6c64223e2360501b8152612aad6016820185611ec4565b7f3c2f746578743e3c7465787420783d2234302220793d223338302220666f6e7481527f2d66616d696c793d226d6f6e6f73706163652220666f6e742d73697a653d223160208201527f32222066696c6c3d2223393461336238223e50524f44554345523a3c2f7465786040820152613a1f60f11b606082015260620195945050505050565b7f3c7465787420783d223133302220793d223338302220666f6e742d66616d696c81527f793d226d6f6e6f73706163652220666f6e742d73697a653d223132222066696c60208201526b361e9111b299329c3318111f60a11b60408201525f612b9f604c830184611ec4565b7f2e2e2e3c2f746578743e3c7465787420783d2234302220793d2234313022206681527f6f6e742d66616d696c793d226d6f6e6f73706163652220666f6e742d73697a6560208201527f3d223132222066696c6c3d2223393461336238223e434f4e53554d45523a3c2f6040820152643a32bc3a1f60d91b60608201526065019392505050565b7f3c7465787420783d223133302220793d223431302220666f6e742d66616d696c81527f793d226d6f6e6f73706163652220666f6e742d73697a653d223132222066696c60208201526b361e9111b299329c3318111f60a11b60408201525f612c92604c830184611ec4565b7f2e2e2e3c2f746578743e3c7465787420783d2234302220793d2234343022206681527f6f6e742d66616d696c793d226d6f6e6f73706163652220666f6e742d73697a6560208201527f3d223132222066696c6c3d2223393461336238223e54494d455354414d503a3c60408201526517ba32bc3a1f60d11b60608201526066019392505050565b7f3c7465787420783d223133302220793d223434302220666f6e742d66616d696c81527f793d226d6f6e6f73706163652220666f6e742d73697a653d223132222066696c60208201526b361e9111b299329c3318111f60a11b60408201525f612d86604c830184611ec4565b7f3c2f746578743e3c7465787420783d223230302220793d223438352220666f6e81527f742d66616d696c793d226d6f6e6f73706163652220666f6e742d73697a653d2260208201527f3130222066696c6c3d2272676261283235352c3235352c3235352c302e34292260408201527f20746578742d616e63686f723d226d6964646c65223e4f4646494349414c204f60608201527f4e2d434841494e205245434f52443c2f746578743e3c2f7376673e00000000006080820152609b019392505050565b808202811582820484141761036f5761036f611e98565b8082018082111561036f5761036f611e98565b5f81612e8357612e83611e98565b505f190190565b5f82612ea457634e487b7160e01b5f52601260045260245ffd5b50049056fea26469706673582212200f1d67c9d13a92f3be0bc7c3dc1f133c81653768084e926b227b8e275eb50cd164736f6c634300081c0033",
  "linkReferences": {},
  "deployedLinkReferences": {},
  "immutableReferences": {},
  "inputSourceName": "project/contracts/EnergyCertificate.sol",
  "buildInfoId": "solc-0_8_28-d3a812f9cd47d66f8428ba6c1f4f73bf29811848"
}