{
  "_format": "hh3-artifact-1",
  "contractName": "EnergyAuction",
  "sourceName": "contracts/EnergyAuction.sol",
  "abi": [
    {
      "inputs": [
        {
          "internalType": "address",
          "name": "_energyTokenAddress",
          "type": "address"
        }
      ],
      "stateMutability": "nonpayable",
      "type": "constructor"
    },
    {
      "anonymous": false,
      "inputs": [
        {
          "indexed": true,
          "internalType": "uint256",
          "name": "auctionId",
          "type": "uint256"
        },
        {
          "indexed": true,
          "internalType": "address",
          "name": "seller",
          "type": "address"
        }
      ],
      "name": "AuctionCancelled",
      "type": "event"
    },
    {
      "anonymous": false,
      "inputs": [
        {
          "indexed": true,
          "internalType": "uint256",
          "name": "auctionId",
          "type": "uint256"
        },
        {
          "indexed": true,
          "internalType": "address",
          "name": "seller",
          "type": "address"
        },
        {
          "indexed": false,
          "internalType": "uint256",
          "name": "amount",
          "type": "uint256"
        },
        {
          "indexed": false,
          "internalType": "uint256",
          "name": "startingPrice",
          "type": "uint256"
        },
        {
          "indexed": false,
          "internalType": "uint256",
          "name": "endTime",
          "type": "uint256"
        }
      ],
      "name": "AuctionCreated",
      "type": "event"
    },
    {
      "anonymous": false,
      "inputs": [
        {
          "indexed": true,
          "internalType": "uint256",
          "name": "auctionId",
          "type": "uint256"
        },
        {
          "indexed": true,
          "internalType": "address",
          "name": "winner",
          "type": "address"
        },
        {
          "indexed": false,
          "internalType": "uint256",
          "name": "tokenAmount",
          "type": "uint256"
        },
        {
          "indexed": false,
          "internalType": "uint256",
          "name": "finalPrice",
          "type": "uint256"
        }
      ],
      "name": "AuctionEnded",
      "type": "event"
    },
    {
      "anonymous": false,
      "inputs": [
        {
          "indexed": true,
          "internalType": "uint256",
          "name": "auctionId",
          "type": "uint256"
        },
        {
          "indexed": true,
          "internalType": "address",
          "name": "bidder",
          "type": "address"
        },
        {
          "indexed": false,
          "internalType": "uint256",
          "name": "amount",
          "type": "uint256"
        }
      ],
      "name": "BidPlaced",
      "type": "event"
    },
    {
      "inputs": [],
      "name": "auctionCount",
      "outputs": [
        {
          "internalType": "uint256",
          "name": "",
          "type": "uint256"
        }
      ],
      "stateMutability": "view",
      "type": "function"
    },
    {
      "inputs": [
        {
          "internalType": "uint256",
          "name": "",
          "type": "uint256"
        }
      ],
      "name": "auctions",
      "outputs": [
        {
          "internalType": "uint256",
          "name": "id",
          "type": "uint256"
        },
        {
          "internalType": "address",
          "name": "seller",
          "type": "address"
        },
        {
          "internalType": "uint256",
          "name": "tokenAmount",
          "type": "uint256"
        },
        {
          "internalType": "uint256",
          "name": "startingPrice",
          "type": "uint256"
        },
        {
          "internalType": "uint256",
          "name": "endTime",
          "type": "uint256"
        },
        {
          "internalType": "address",
          "name": "highestBidder",
          "type": "address"
        },
        {
          "internalType": "uint256",
          "name": "highestBid",
          "type": "uint256"
        },
        {
          "internalType": "bool",
          "name": "ended",
          "type": "bool"
        },
        {
          "internalType": "bool",
          "name": "cancelled",
          "type": "bool"
        }
      ],
      "stateMutability": "view",
      "type": "function"
    },
    {
      "inputs": [
        {
          "internalType": "uint256",
          "name": "auctionId",
          "type": "uint256"
        }
      ],
      "name": "cancelAuction",
      "outputs": [],
      "stateMutability": "nonpayable",
      "type": "function"
    },
    {
      "inputs": [
        {
          "internalType": "uint256",
          "name": "amount",
          "type": "uint256"
        },
        {
          "internalType": "uint256",
          "name": "startingPrice",
          "type": "uint256"
        },
        {
          "internalType": "uint256",
          "name": "durationMinutes",
          "type": "uint256"
        }
      ],
      "name": "createAuction",
      "outputs": [],
      "stateMutability": "nonpayable",
      "type": "function"
    },
    {
      "inputs": [
        {
          "internalType": "uint256",
          "name": "auctionId",
          "type": "uint256"
        }
      ],
      "name": "endAuction",
      "outputs": [],
      "stateMutability": "nonpayable",
      "type": "function"
    },
    {
      "inputs": [],
      "name": "energyCertificate",
      "outputs": [
        {
          "internalType": "contract IEnergyCertificate",
          "name": "",
          "type": "address"
        }
      ],
      "stateMutability": "view",
      "type": "function"
    },
    {
      "inputs": [],
      "name": "energyToken",
      "outputs": [
        {
          "internalType": "contract EnergyToken",
          "name": "",
          "type": "address"
        }
      ],
      "stateMutability": "view",
      "type": "function"
    },
    {
      "inputs": [],
      "name": "getActiveAuctions",
      "outputs": [
        {
          "components": [
            {
              "internalType": "uint256",
              "name": "id",
              "type": "uint256"
            },
            {
              "internalType": "address",
              "name": "seller",
              "type": "address"
            },
            {
              "internalType": "uint256",
              "name": "tokenAmount",
              "type": "uint256"
            },
            {
              "internalType": "uint256",
              "name": "startingPrice",
              "type": "uint256"
            },
            {
              "internalType": "uint256",
              "name": "endTime",
              "type": "uint256"
            },
            {
              "internalType": "address",
              "name": "highestBidder",
              "type": "address"
            },
            {
              "internalType": "uint256",
              "name": "highestBid",
              "type": "uint256"
            },
            {
              "internalType": "bool",
              "name": "ended",
              "type": "bool"
            },
            {
              "internalType": "bool",
              "name": "cancelled",
              "type": "bool"
            }
          ],
          "internalType": "struct EnergyAuction.Auction[]",
          "name": "",
          "type": "tuple[]"
        }
      ],
      "stateMutability": "view",
      "type": "function"
    },
    {
      "inputs": [
        {
          "internalType": "uint256",
          "name": "auctionId",
          "type": "uint256"
        }
      ],
      "name": "getAuction",
      "outputs": [
        {
          "components": [
            {
              "internalType": "uint256",
              "name": "id",
              "type": "uint256"
            },
            {
              "internalType": "address",
              "name": "seller",
              "type": "address"
            },
            {
              "internalType": "uint256",
              "name": "tokenAmount",
              "type": "uint256"
            },
            {
              "internalType": "uint256",
              "name": "startingPrice",
              "type": "uint256"
            },
            {
              "internalType": "uint256",
              "name": "endTime",
              "type": "uint256"
            },
            {
              "internalType": "address",
              "name": "highestBidder",
              "type": "address"
            },
            {
              "internalType": "uint256",
              "name": "highestBid",
              "type": "uint256"
            },
            {
              "internalType": "bool",
              "name": "ended",
              "type": "bool"
            },
            {
              "internalType": "bool",
              "name": "cancelled",
              "type": "bool"
            }
          ],
          "internalType": "struct EnergyAuction.Auction",
          "name": "",
          "type": "tuple"
        }
      ],
      "stateMutability": "view",
      "type": "function"
    },
    {
      "inputs": [],
      "name": "owner",
      "outputs": [
        {
          "internalType": "address",
          "name": "",
          "type": "address"
        }
      ],
      "stateMutability": "view",
      "type": "function"
    },
    {
      "inputs": [
        {
          "internalType": "uint256",
          "name": "auctionId",
          "type": "uint256"
        }
      ],
      "name": "placeBid",
      "outputs": [],
      "stateMutability": "payable",
      "type": "function"
    },
    {
      "inputs": [
        {
          "internalType": "address",
          "name": "_cert",
          "type": "address"
        }
      ],
      "name": "setCertificateContract",
      "outputs": [],
      "stateMutability": "nonpayable",
      "type": "function"
    }
  ],
  "bytecode": "0x6080604052348015600e575f5ffd5b506040516117ad3803806117ad833981016040819052602b916058565b600180546001600160a01b039092166001600160a01b031992831617905560028054909116331790556083565b5f602082840312156067575f5ffd5b81516001600160a01b0381168114607c575f5ffd5b9392505050565b61171d806100905f395ff3fe6080604052600436106100a5575f3560e01c80638da5cb5b116100625780638da5cb5b1461024057806396b5a7551461025f5780639979ef451461027e578063b9a2de3a14610291578063cda4beef146102b0578063cf44b5d5146102cf575f5ffd5b80632ad71573146100a95780634ec7fb81146100d1578063518624011461010857806353c0886a14610129578063571a26a01461014757806378bd793514610214575b5f5ffd5b3480156100b4575f5ffd5b506100be60035481565b6040519081526020015b60405180910390f35b3480156100dc575f5ffd5b506001546100f0906001600160a01b031681565b6040516001600160a01b0390911681526020016100c8565b348015610113575f5ffd5b506101276101223660046113d9565b6102f0565b005b348015610134575f5ffd5b505f546100f0906001600160a01b031681565b348015610152575f5ffd5b506101be610161366004611406565b600460208190525f91825260409091208054600182015460028301546003840154948401546005850154600686015460079096015494966001600160a01b0394851696939590949293919092169160ff8082169161010090041689565b60408051998a526001600160a01b0398891660208b01528901969096526060880194909452608087019290925290931660a085015260c084019290925290151560e08301521515610100820152610120016100c8565b34801561021f575f5ffd5b5061023361022e366004611406565b61035d565b6040516100c89190611496565b34801561024b575f5ffd5b506002546100f0906001600160a01b031681565b34801561026a575f5ffd5b50610127610279366004611406565b6103f0565b61012761028c366004611406565b61068f565b34801561029c575f5ffd5b506101276102ab366004611406565b610929565b3480156102bb575f5ffd5b506101276102ca3660046114ab565b610d42565b3480156102da575f5ffd5b506102e36111a5565b6040516100c891906114d4565b6002546001600160a01b0316331461033c5760405162461bcd60e51b815260206004820152600a60248201526927b7363c9037bbb732b960b11b60448201526064015b60405180910390fd5b5f80546001600160a01b0319166001600160a01b0392909216919091179055565b610365611380565b505f908152600460208181526040928390208351610120810185528154815260018201546001600160a01b03908116938201939093526002820154948101949094526003810154606085015291820154608084015260058201541660a0830152600681015460c08301526007015460ff808216151560e0840152610100918290041615159082015290565b5f81815260046020526040902060018101546001600160a01b031633146104525760405162461bcd60e51b815260206004820152601660248201527513db9b1e481cd95b1b195c8818d85b8818d85b98d95b60521b6044820152606401610333565b600781015460ff161561049f5760405162461bcd60e51b8152602060048201526015602482015274105d58dd1a5bdb88185b1c9958591e48195b991959605a1b6044820152606401610333565b6007810154610100900460ff16156104f95760405162461bcd60e51b815260206004820152601960248201527f41756374696f6e20616c72656164792063616e63656c6c6564000000000000006044820152606401610333565b60058101546001600160a01b0316156105545760405162461bcd60e51b815260206004820152601e60248201527f43616e6e6f742063616e63656c207769746820616374697665206269647300006044820152606401610333565b60078101805461ff0019166101001790556001546040805163313ce56760e01b815290515f926001600160a01b03169163313ce5679160048083019260209291908290030181865afa1580156105ac573d5f5f3e3d5ffd5b505050506040513d601f19601f820116820180604052508101906105d09190611522565b6105db90600a611639565b82600201546105ea9190611647565b60015460405163a9059cbb60e01b8152336004820152602481018390529192506001600160a01b03169063a9059cbb906044016020604051808303815f875af1158015610639573d5f5f3e3d5ffd5b505050506040513d601f19601f8201168201806040525081019061065d919061165e565b50604051339084907f10ac9f0bb365b5d22d7bec500408692f23fdf83eadfec71615ef88b4c1134f0e905f90a3505050565b5f818152600460205260409020600781015460ff16156106e55760405162461bcd60e51b8152602060048201526011602482015270105d58dd1a5bdb881a185cc8195b991959607a1b6044820152606401610333565b6007810154610100900460ff16156107375760405162461bcd60e51b8152602060048201526015602482015274105d58dd1a5bdb881dd85cc818d85b98d95b1b1959605a1b6044820152606401610333565b806004015442106107815760405162461bcd60e51b8152602060048201526014602482015273105d58dd1a5bdb881d1a5b5948195e1c1a5c995960621b6044820152606401610333565b60018101546001600160a01b031633036107d15760405162461bcd60e51b815260206004820152601160248201527014d95b1b195c8818d85b9b9bdd08189a59607a1b6044820152606401610333565b80600301543410156108255760405162461bcd60e51b815260206004820152601860248201527f4269642062656c6f77207374617274696e6720707269636500000000000000006044820152606401610333565b806006015434116108885760405162461bcd60e51b815260206004820152602760248201527f426964206d75737420626520686967686572207468616e2063757272656e74206044820152661a1a59da195cdd60ca1b6064820152608401610333565b6005810180546006830180546001600160a01b0319831633179093553490556001600160a01b03169081156108ec576040516001600160a01b0383169082156108fc029083905f818181858888f193505050501580156108ea573d5f5f3e3d5ffd5b505b604051348152339085907f0e54eff26401bf69b81b26f60bd85ef47f5d85275c1d268d84f68d6897431c479060200160405180910390a350505050565b5f818152600460205260409020600781015460ff16156109835760405162461bcd60e51b8152602060048201526015602482015274105d58dd1a5bdb88185b1c9958591e48195b991959605a1b6044820152606401610333565b6007810154610100900460ff16156109d55760405162461bcd60e51b8152602060048201526015602482015274105d58dd1a5bdb881dd85cc818d85b98d95b1b1959605a1b6044820152606401610333565b8060040154421015610a295760405162461bcd60e51b815260206004820152601760248201527f41756374696f6e206e6f742079657420657870697265640000000000000000006044820152606401610333565b60078101805460ff19166001908117909155546040805163313ce56760e01b815290515f926001600160a01b03169163313ce5679160048083019260209291908290030181865afa158015610a80573d5f5f3e3d5ffd5b505050506040513d601f19601f82011682018060405250810190610aa49190611522565b610aaf90600a611639565b8260020154610abe9190611647565b60058301549091506001600160a01b031615610c8557600154600583015460405163a9059cbb60e01b81526001600160a01b0391821660048201526024810184905291169063a9059cbb906044016020604051808303815f875af1158015610b28573d5f5f3e3d5ffd5b505050506040513d601f19601f82011682018060405250810190610b4c919061165e565b50600182015460068301546040516001600160a01b039092169181156108fc0291905f818181858888f19350505050158015610b8a573d5f5f3e3d5ffd5b505f546001600160a01b031615610c24575f54600583015460018401546002850154604051630ba0cc2360e41b81526001600160a01b0393841660048201529183166024830152604482015291169063ba0cc230906064016020604051808303815f875af1158015610bfe573d5f5f3e3d5ffd5b505050506040513d601f19601f82011682018060405250810190610c22919061167d565b505b6005820154600283015460068401546040516001600160a01b039093169286927fe9ba83469fc8ee4260dd274fd43b5a54f2df813ad21c4637d53084d1f3866b3792610c7892918252602082015260400190565b60405180910390a3505050565b600180549083015460405163a9059cbb60e01b81526001600160a01b0391821660048201526024810184905291169063a9059cbb906044016020604051808303815f875af1158015610cd9573d5f5f3e3d5ffd5b505050506040513d601f19601f82011682018060405250810190610cfd919061165e565b506002820154604080519182525f602083018190529185917fe9ba83469fc8ee4260dd274fd43b5a54f2df813ad21c4637d53084d1f3866b379101610c78565b505050565b5f8311610d915760405162461bcd60e51b815260206004820152601d60248201527f416d6f756e74206d7573742062652067726561746572207468616e20300000006044820152606401610333565b5f8211610dee5760405162461bcd60e51b815260206004820152602560248201527f5374617274696e67207072696365206d75737420626520677265617465722074604482015264068616e20360dc1b6064820152608401610333565b5f8111610e3d5760405162461bcd60e51b815260206004820152601f60248201527f4475726174696f6e206d7573742062652067726561746572207468616e2030006044820152606401610333565b6105a0811115610e8f5760405162461bcd60e51b815260206004820152601f60248201527f4475726174696f6e2063616e6e6f742065786365656420323420686f757273006044820152606401610333565b6001546040805163313ce56760e01b815290515f926001600160a01b03169163313ce5679160048083019260209291908290030181865afa158015610ed6573d5f5f3e3d5ffd5b505050506040513d601f19601f82011682018060405250810190610efa9190611522565b610f0590600a611639565b610f0f9085611647565b6001546040516370a0823160e01b815233600482015291925082916001600160a01b03909116906370a0823190602401602060405180830381865afa158015610f5a573d5f5f3e3d5ffd5b505050506040513d601f19601f82011682018060405250810190610f7e919061167d565b1015610fcc5760405162461bcd60e51b815260206004820152601a60248201527f496e73756666696369656e7420746f6b656e2062616c616e63650000000000006044820152606401610333565b6001546040516323b872dd60e01b8152336004820152306024820152604481018390526001600160a01b03909116906323b872dd906064016020604051808303815f875af1158015611020573d5f5f3e3d5ffd5b505050506040513d601f19601f82011682018060405250810190611044919061165e565b5060038054905f61105483611694565b909155505f905061106683603c611647565b61107090426116ac565b6040805161012081018252600380548083523360208085018281528587018d8152606087018d8152608088018a81525f60a08a0181815260c08b0182815260e08c01838152610100808e018581529b85526004998a9052938e90209c518d55965160018d0180546001600160a01b039283166001600160a01b031991821617909155965160028e015594518c8c01559251968b0196909655945160058a01805491909316931692909217905551600687015551600790950180549351151590910261ff00199515159590951661ffff1990931692909217939093179055549151929350917f05f9bf100dd0ca9f37f08e0526690286d357ed7d6c5a4ac29730440b6e2dfd6290611196908990899087909283526020830191909152604082015260600190565b60405180910390a35050505050565b60605f60015b6003548111611210575f8181526004602052604090206007015460ff161580156111eb57505f81815260046020526040902060070154610100900460ff16155b156111fe57816111fa81611694565b9250505b8061120881611694565b9150506111ab565b505f8167ffffffffffffffff81111561122b5761122b6116bf565b60405190808252806020026020018201604052801561126457816020015b611251611380565b8152602001906001900390816112495790505b5090505f60015b6003548111611377575f8181526004602052604090206007015460ff161580156112ab57505f81815260046020526040902060070154610100900460ff16155b15611365575f818152600460208181526040928390208351610120810185528154815260018201546001600160a01b03908116938201939093526002820154948101949094526003810154606085015291820154608084015260058201541660a0830152600681015460c08301526007015460ff808216151560e08401526101009182900416151590820152835184908490811061134b5761134b6116d3565b6020026020010181905250818061136190611694565b9250505b8061136f81611694565b91505061126b565b50909392505050565b6040518061012001604052805f81526020015f6001600160a01b031681526020015f81526020015f81526020015f81526020015f6001600160a01b031681526020015f81526020015f151581526020015f151581525090565b5f602082840312156113e9575f5ffd5b81356001600160a01b03811681146113ff575f5ffd5b9392505050565b5f60208284031215611416575f5ffd5b5035919050565b8051825260018060a01b03602082015116602083015260408101516040830152606081015160608301526080810151608083015260018060a01b0360a08201511660a083015260c081015160c083015260e081015161148060e084018215159052565b50610100810151610d3d61010084018215159052565b61012081016114a5828461141d565b92915050565b5f5f5f606084860312156114bd575f5ffd5b505081359360208301359350604090920135919050565b602080825282518282018190525f918401906040840190835b818110156115175761150083855161141d565b6020939093019261012092909201916001016114ed565b509095945050505050565b5f60208284031215611532575f5ffd5b815160ff811681146113ff575f5ffd5b634e487b7160e01b5f52601160045260245ffd5b6001815b60018411156115915780850481111561157557611575611542565b600184161561158357908102905b60019390931c92800261155a565b935093915050565b5f826115a7575060016114a5565b816115b357505f6114a5565b81600181146115c957600281146115d3576115ef565b60019150506114a5565b60ff8411156115e4576115e4611542565b50506001821b6114a5565b5060208310610133831016604e8410600b8410161715611612575081810a6114a5565b61161e5f198484611556565b805f190482111561163157611631611542565b029392505050565b5f6113ff60ff841683611599565b80820281158282048414176114a5576114a5611542565b5f6020828403121561166e575f5ffd5b815180151581146113ff575f5ffd5b5f6020828403121561168d575f5ffd5b5051919050565b5f600182016116a5576116a5611542565b5060010190565b808201808211156114a5576114a5611542565b634e487b7160e01b5f52604160045260245ffd5b634e487b7160e01b5f52603260045260245ffdfea26469706673582212204848859feb5f10d6f5b8c3e646794ab5237489012b3986a6cd94b8e9572505bb64736f6c634300081c0033",
  "linkReferences": {},
  "deployedLinkReferences": {},
  "immutableReferences": {},
  "inputSourceName": "project/contracts/EnergyAuction.sol",
  "buildInfoId": "solc-0_8_28-716428cc139ee01d257eb06452041e1543f9e05f"
}