{
  "_format": "hh3-artifact-1",
  "contractName": "EnergyAuction",
  "sourceName": "contracts/EnergyAuction.sol",
  "abi": [
    {
      "inputs": [
        {
          "internalType": "address",
          "name": "_energyTokenAddress",
          "type": "address"
        }
      ],
      "stateMutability": "nonpayable",
      "type": "constructor"
    },
    {
      "anonymous": false,
      "inputs": [
        {
          "indexed": true,
          "internalType": "uint256",
          "name": "auctionId",
          "type": "uint256"
        },
        {
          "indexed": true,
          "internalType": "address",
          "name": "seller",
          "type": "address"
        }
      ],
      "name": "AuctionCancelled",
      "type": "event"
    },
    {
      "anonymous": false,
      "inputs": [
        {
          "indexed": true,
          "internalType": "uint256",
          "name": "auctionId",
          "type": "uint256"
        },
        {
          "indexed": true,
          "internalType": "address",
          "name": "seller",
          "type": "address"
        },
        {
          "indexed": false,
          "internalType": "uint256",
          "name": "amount",
          "type": "uint256"
        },
        {
          "indexed": false,
          "internalType": "uint256",
          "name": "startingPrice",
          "type": "uint256"
        },
        {
          "indexed": false,
          "internalType": "uint256",
          "name": "endTime",
          "type": "uint256"
        }
      ],
      "name": "AuctionCreated",
      "type": "event"
    },
    {
      "anonymous": false,
      "inputs": [
        {
          "indexed": true,
          "internalType": "uint256",
          "name": "auctionId",
          "type": "uint256"
        },
        {
          "indexed": true,
          "internalType": "address",
          "name": "winner",
          "type": "address"
        },
        {
          "indexed": false,
          "internalType": "uint256",
          "name": "tokenAmount",
          "type": "uint256"
        },
        {
          "indexed": false,
          "internalType": "uint256",
          "name": "finalPrice",
          "type": "uint256"
        }
      ],
      "name": "AuctionEnded",
      "type": "event"
    },
    {
      "anonymous": false,
      "inputs": [
        {
          "indexed": true,
          "internalType": "uint256",
          "name": "auctionId",
          "type": "uint256"
        },
        {
          "indexed": true,
          "internalType": "address",
          "name": "bidder",
          "type": "address"
        },
        {
          "indexed": false,
          "internalType": "uint256",
          "name": "amount",
          "type": "uint256"
        }
      ],
      "name": "BidPlaced",
      "type": "event"
    },
    {
      "inputs": [],
      "name": "auctionCount",
      "outputs": [
        {
          "internalType": "uint256",
          "name": "",
          "type": "uint256"
        }
      ],
      "stateMutability": "view",
      "type": "function"
    },
    {
      "inputs": [
        {
          "internalType": "uint256",
          "name": "",
          "type": "uint256"
        }
      ],
      "name": "auctions",
      "outputs": [
        {
          "internalType": "uint256",
          "name": "id",
          "type": "uint256"
        },
        {
          "internalType": "address",
          "name": "seller",
          "type": "address"
        },
        {
          "internalType": "uint256",
          "name": "tokenAmount",
          "type": "uint256"
        },
        {
          "internalType": "uint256",
          "name": "startingPrice",
          "type": "uint256"
        },
        {
          "internalType": "uint256",
          "name": "endTime",
          "type": "uint256"
        },
        {
          "internalType": "address",
          "name": "highestBidder",
          "type": "address"
        },
        {
          "internalType": "uint256",
          "name": "highestBid",
          "type": "uint256"
        },
        {
          "internalType": "bool",
          "name": "ended",
          "type": "bool"
        },
        {
          "internalType": "bool",
          "name": "cancelled",
          "type": "bool"
        }
      ],
      "stateMutability": "view",
      "type": "function"
    },
    {
      "inputs": [
        {
          "internalType": "uint256",
          "name": "auctionId",
          "type": "uint256"
        }
      ],
      "name": "cancelAuction",
      "outputs": [],
      "stateMutability": "nonpayable",
      "type": "function"
    },
    {
      "inputs": [
        {
          "internalType": "uint256",
          "name": "amount",
          "type": "uint256"
        },
        {
          "internalType": "uint256",
          "name": "startingPrice",
          "type": "uint256"
        },
        {
          "internalType": "uint256",
          "name": "durationMinutes",
          "type": "uint256"
        }
      ],
      "name": "createAuction",
      "outputs": [],
      "stateMutability": "nonpayable",
      "type": "function"
    },
    {
      "inputs": [
        {
          "internalType": "uint256",
          "name": "auctionId",
          "type": "uint256"
        }
      ],
      "name": "endAuction",
      "outputs": [],
      "stateMutability": "nonpayable",
      "type": "function"
    },
    {
      "inputs": [],
      "name": "energyToken",
      "outputs": [
        {
          "internalType": "contract EnergyToken",
          "name": "",
          "type": "address"
        }
      ],
      "stateMutability": "view",
      "type": "function"
    },
    {
      "inputs": [],
      "name": "getActiveAuctions",
      "outputs": [
        {
          "components": [
            {
              "internalType": "uint256",
              "name": "id",
              "type": "uint256"
            },
            {
              "internalType": "address",
              "name": "seller",
              "type": "address"
            },
            {
              "internalType": "uint256",
              "name": "tokenAmount",
              "type": "uint256"
            },
            {
              "internalType": "uint256",
              "name": "startingPrice",
              "type": "uint256"
            },
            {
              "internalType": "uint256",
              "name": "endTime",
              "type": "uint256"
            },
            {
              "internalType": "address",
              "name": "highestBidder",
              "type": "address"
            },
            {
              "internalType": "uint256",
              "name": "highestBid",
              "type": "uint256"
            },
            {
              "internalType": "bool",
              "name": "ended",
              "type": "bool"
            },
            {
              "internalType": "bool",
              "name": "cancelled",
              "type": "bool"
            }
          ],
          "internalType": "struct EnergyAuction.Auction[]",
          "name": "",
          "type": "tuple[]"
        }
      ],
      "stateMutability": "view",
      "type": "function"
    },
    {
      "inputs": [
        {
          "internalType": "uint256",
          "name": "auctionId",
          "type": "uint256"
        }
      ],
      "name": "getAuction",
      "outputs": [
        {
          "components": [
            {
              "internalType": "uint256",
              "name": "id",
              "type": "uint256"
            },
            {
              "internalType": "address",
              "name": "seller",
              "type": "address"
            },
            {
              "internalType": "uint256",
              "name": "tokenAmount",
              "type": "uint256"
            },
            {
              "internalType": "uint256",
              "name": "startingPrice",
              "type": "uint256"
            },
            {
              "internalType": "uint256",
              "name": "endTime",
              "type": "uint256"
            },
            {
              "internalType": "address",
              "name": "highestBidder",
              "type": "address"
            },
            {
              "internalType": "uint256",
              "name": "highestBid",
              "type": "uint256"
            },
            {
              "internalType": "bool",
              "name": "ended",
              "type": "bool"
            },
            {
              "internalType": "bool",
              "name": "cancelled",
              "type": "bool"
            }
          ],
          "internalType": "struct EnergyAuction.Auction",
          "name": "",
          "type": "tuple"
        }
      ],
      "stateMutability": "view",
      "type": "function"
    },
    {
      "inputs": [],
      "name": "owner",
      "outputs": [
        {
          "internalType": "address",
          "name": "",
          "type": "address"
        }
      ],
      "stateMutability": "view",
      "type": "function"
    },
    {
      "inputs": [
        {
          "internalType": "uint256",
          "name": "auctionId",
          "type": "uint256"
        }
      ],
      "name": "placeBid",
      "outputs": [],
      "stateMutability": "payable",
      "type": "function"
    }
  ],
  "bytecode": "0x608060405234801561000f575f5ffd5b50604051612a9b380380612a9b83398181016040528101906100319190610114565b805f5f6101000a81548173ffffffffffffffffffffffffffffffffffffffff021916908373ffffffffffffffffffffffffffffffffffffffff1602179055503360015f6101000a81548173ffffffffffffffffffffffffffffffffffffffff021916908373ffffffffffffffffffffffffffffffffffffffff1602179055505061013f565b5f5ffd5b5f73ffffffffffffffffffffffffffffffffffffffff82169050919050565b5f6100e3826100ba565b9050919050565b6100f3816100d9565b81146100fd575f5ffd5b50565b5f8151905061010e816100ea565b92915050565b5f60208284031215610129576101286100b6565b5b5f61013684828501610100565b91505092915050565b61294f8061014c5f395ff3fe608060405260043610610090575f3560e01c806396b5a7551161005857806396b5a755146101925780639979ef45146101ba578063b9a2de3a146101d6578063cda4beef146101fe578063cf44b5d51461022657610090565b80632ad71573146100945780634ec7fb81146100be578063571a26a0146100e857806378bd79351461012c5780638da5cb5b14610168575b5f5ffd5b34801561009f575f5ffd5b506100a8610250565b6040516100b591906118c8565b60405180910390f35b3480156100c9575f5ffd5b506100d2610256565b6040516100df919061195b565b60405180910390f35b3480156100f3575f5ffd5b5061010e600480360381019061010991906119a2565b61027a565b60405161012399989796959493929190611a07565b60405180910390f35b348015610137575f5ffd5b50610152600480360381019061014d91906119a2565b61031b565b60405161015f9190611b74565b60405180910390f35b348015610173575f5ffd5b5061017c610457565b6040516101899190611b8e565b60405180910390f35b34801561019d575f5ffd5b506101b860048036038101906101b391906119a2565b61047c565b005b6101d460048036038101906101cf91906119a2565b610802565b005b3480156101e1575f5ffd5b506101fc60048036038101906101f791906119a2565b610b64565b005b348015610209575f5ffd5b50610224600480360381019061021f9190611ba7565b611044565b005b348015610231575f5ffd5b5061023a611580565b6040516102479190611d55565b60405180910390f35b60025481565b5f5f9054906101000a900473ffffffffffffffffffffffffffffffffffffffff1681565b6003602052805f5260405f205f91509050805f015490806001015f9054906101000a900473ffffffffffffffffffffffffffffffffffffffff1690806002015490806003015490806004015490806005015f9054906101000a900473ffffffffffffffffffffffffffffffffffffffff1690806006015490806007015f9054906101000a900460ff16908060070160019054906101000a900460ff16905089565b61032361183d565b60035f8381526020019081526020015f20604051806101200160405290815f8201548152602001600182015f9054906101000a900473ffffffffffffffffffffffffffffffffffffffff1673ffffffffffffffffffffffffffffffffffffffff1673ffffffffffffffffffffffffffffffffffffffff168152602001600282015481526020016003820154815260200160048201548152602001600582015f9054906101000a900473ffffffffffffffffffffffffffffffffffffffff1673ffffffffffffffffffffffffffffffffffffffff1673ffffffffffffffffffffffffffffffffffffffff16815260200160068201548152602001600782015f9054906101000a900460ff161515151581526020016007820160019054906101000a900460ff1615151515815250509050919050565b60015f9054906101000a900473ffffffffffffffffffffffffffffffffffffffff1681565b5f60035f8381526020019081526020015f2090503373ffffffffffffffffffffffffffffffffffffffff16816001015f9054906101000a900473ffffffffffffffffffffffffffffffffffffffff1673ffffffffffffffffffffffffffffffffffffffff1614610521576040517f08c379a000000000000000000000000000000000000000000000000000000000815260040161051890611dcf565b60405180910390fd5b806007015f9054906101000a900460ff1615610572576040517f08c379a000000000000000000000000000000000000000000000000000000000815260040161056990611e37565b60405180910390fd5b8060070160019054906101000a900460ff16156105c4576040517f08c379a00000000000000000000000000000000000000000000000000000000081526004016105bb90611e9f565b60405180910390fd5b5f73ffffffffffffffffffffffffffffffffffffffff16816005015f9054906101000a900473ffffffffffffffffffffffffffffffffffffffff1673ffffffffffffffffffffffffffffffffffffffff1614610655576040517f08c379a000000000000000000000000000000000000000000000000000000000815260040161064c90611f07565b60405180910390fd5b60018160070160016101000a81548160ff0219169083151502179055505f5f5f9054906101000a900473ffffffffffffffffffffffffffffffffffffffff1673ffffffffffffffffffffffffffffffffffffffff1663313ce5676040518163ffffffff1660e01b8152600401602060405180830381865afa1580156106dc573d5f5f3e3d5ffd5b505050506040513d601f19601f820116820180604052508101906107009190611f5b565b600a61070c91906120e2565b826002015461071b919061212c565b90505f5f9054906101000a900473ffffffffffffffffffffffffffffffffffffffff1673ffffffffffffffffffffffffffffffffffffffff1663a9059cbb33836040518363ffffffff1660e01b815260040161077892919061216d565b6020604051808303815f875af1158015610794573d5f5f3e3d5ffd5b505050506040513d601f19601f820116820180604052508101906107b891906121be565b503373ffffffffffffffffffffffffffffffffffffffff16837f10ac9f0bb365b5d22d7bec500408692f23fdf83eadfec71615ef88b4c1134f0e60405160405180910390a3505050565b5f60035f8381526020019081526020015f209050806007015f9054906101000a900460ff1615610867576040517f08c379a000000000000000000000000000000000000000000000000000000000815260040161085e90612233565b60405180910390fd5b8060070160019054906101000a900460ff16156108b9576040517f08c379a00000000000000000000000000000000000000000000000000000000081526004016108b09061229b565b60405180910390fd5b806004015442106108ff576040517f08c379a00000000000000000000000000000000000000000000000000000000081526004016108f690612303565b60405180910390fd5b806001015f9054906101000a900473ffffffffffffffffffffffffffffffffffffffff1673ffffffffffffffffffffffffffffffffffffffff163373ffffffffffffffffffffffffffffffffffffffff1603610990576040517f08c379a00000000000000000000000000000000000000000000000000000000081526004016109879061236b565b60405180910390fd5b80600301543410156109d7576040517f08c379a00000000000000000000000000000000000000000000000000000000081526004016109ce906123d3565b60405180910390fd5b80600601543411610a1d576040517f08c379a0000000000000000000000000000000000000000000000000000000008152600401610a1490612461565b60405180910390fd5b5f816005015f9054906101000a900473ffffffffffffffffffffffffffffffffffffffff1690505f8260060154905033836005015f6101000a81548173ffffffffffffffffffffffffffffffffffffffff021916908373ffffffffffffffffffffffffffffffffffffffff1602179055503483600601819055505f73ffffffffffffffffffffffffffffffffffffffff168273ffffffffffffffffffffffffffffffffffffffff1614610b0f578173ffffffffffffffffffffffffffffffffffffffff166108fc8290811502906040515f60405180830381858888f19350505050158015610b0d573d5f5f3e3d5ffd5b505b3373ffffffffffffffffffffffffffffffffffffffff16847f0e54eff26401bf69b81b26f60bd85ef47f5d85275c1d268d84f68d6897431c4734604051610b5691906118c8565b60405180910390a350505050565b5f60035f8381526020019081526020015f209050806007015f9054906101000a900460ff1615610bc9576040517f08c379a0000000000000000000000000000000000000000000000000000000008152600401610bc090611e37565b60405180910390fd5b8060070160019054906101000a900460ff1615610c1b576040517f08c379a0000000000000000000000000000000000000000000000000000000008152600401610c129061229b565b60405180910390fd5b8060040154421015610c62576040517f08c379a0000000000000000000000000000000000000000000000000000000008152600401610c59906124c9565b60405180910390fd5b6001816007015f6101000a81548160ff0219169083151502179055505f5f5f9054906101000a900473ffffffffffffffffffffffffffffffffffffffff1673ffffffffffffffffffffffffffffffffffffffff1663313ce5676040518163ffffffff1660e01b8152600401602060405180830381865afa158015610ce8573d5f5f3e3d5ffd5b505050506040513d601f19601f82011682018060405250810190610d0c9190611f5b565b600a610d1891906120e2565b8260020154610d27919061212c565b90505f73ffffffffffffffffffffffffffffffffffffffff16826005015f9054906101000a900473ffffffffffffffffffffffffffffffffffffffff1673ffffffffffffffffffffffffffffffffffffffff1614610f2a575f5f9054906101000a900473ffffffffffffffffffffffffffffffffffffffff1673ffffffffffffffffffffffffffffffffffffffff1663a9059cbb836005015f9054906101000a900473ffffffffffffffffffffffffffffffffffffffff16836040518363ffffffff1660e01b8152600401610dfd92919061216d565b6020604051808303815f875af1158015610e19573d5f5f3e3d5ffd5b505050506040513d601f19601f82011682018060405250810190610e3d91906121be565b50816001015f9054906101000a900473ffffffffffffffffffffffffffffffffffffffff1673ffffffffffffffffffffffffffffffffffffffff166108fc836006015490811502906040515f60405180830381858888f19350505050158015610ea8573d5f5f3e3d5ffd5b50816005015f9054906101000a900473ffffffffffffffffffffffffffffffffffffffff1673ffffffffffffffffffffffffffffffffffffffff16837fe9ba83469fc8ee4260dd274fd43b5a54f2df813ad21c4637d53084d1f3866b3784600201548560060154604051610f1d9291906124e7565b60405180910390a361103f565b5f5f9054906101000a900473ffffffffffffffffffffffffffffffffffffffff1673ffffffffffffffffffffffffffffffffffffffff1663a9059cbb836001015f9054906101000a900473ffffffffffffffffffffffffffffffffffffffff16836040518363ffffffff1660e01b8152600401610fa892919061216d565b6020604051808303815f875af1158015610fc4573d5f5f3e3d5ffd5b505050506040513d601f19601f82011682018060405250810190610fe891906121be565b505f73ffffffffffffffffffffffffffffffffffffffff16837fe9ba83469fc8ee4260dd274fd43b5a54f2df813ad21c4637d53084d1f3866b3784600201545f604051611036929190612547565b60405180910390a35b505050565b5f8311611086576040517f08c379a000000000000000000000000000000000000000000000000000000000815260040161107d906125b8565b60405180910390fd5b5f82116110c8576040517f08c379a00000000000000000000000000000000000000000000000000000000081526004016110bf90612646565b60405180910390fd5b5f811161110a576040517f08c379a0000000000000000000000000000000000000000000000000000000008152600401611101906126ae565b60405180910390fd5b6105a081111561114f576040517f08c379a000000000000000000000000000000000000000000000000000000000815260040161114690612716565b60405180910390fd5b5f5f5f9054906101000a900473ffffffffffffffffffffffffffffffffffffffff1673ffffffffffffffffffffffffffffffffffffffff1663313ce5676040518163ffffffff1660e01b8152600401602060405180830381865afa1580156111b9573d5f5f3e3d5ffd5b505050506040513d601f19601f820116820180604052508101906111dd9190611f5b565b600a6111e991906120e2565b846111f4919061212c565b9050805f5f9054906101000a900473ffffffffffffffffffffffffffffffffffffffff1673ffffffffffffffffffffffffffffffffffffffff166370a08231336040518263ffffffff1660e01b81526004016112509190611b8e565b602060405180830381865afa15801561126b573d5f5f3e3d5ffd5b505050506040513d601f19601f8201168201806040525081019061128f9190612748565b10156112d0576040517f08c379a00000000000000000000000000000000000000000000000000000000081526004016112c7906127bd565b60405180910390fd5b5f5f9054906101000a900473ffffffffffffffffffffffffffffffffffffffff1673ffffffffffffffffffffffffffffffffffffffff166323b872dd3330846040518463ffffffff1660e01b815260040161132d939291906127db565b6020604051808303815f875af1158015611349573d5f5f3e3d5ffd5b505050506040513d601f19601f8201168201806040525081019061136d91906121be565b5060025f81548092919061138090612810565b91905055505f603c83611393919061212c565b4261139e9190612857565b905060405180610120016040528060025481526020013373ffffffffffffffffffffffffffffffffffffffff1681526020018681526020018581526020018281526020015f73ffffffffffffffffffffffffffffffffffffffff1681526020015f81526020015f151581526020015f151581525060035f60025481526020019081526020015f205f820151815f01556020820151816001015f6101000a81548173ffffffffffffffffffffffffffffffffffffffff021916908373ffffffffffffffffffffffffffffffffffffffff16021790555060408201518160020155606082015181600301556080820151816004015560a0820151816005015f6101000a81548173ffffffffffffffffffffffffffffffffffffffff021916908373ffffffffffffffffffffffffffffffffffffffff16021790555060c0820151816006015560e0820151816007015f6101000a81548160ff0219169083151502179055506101008201518160070160016101000a81548160ff0219169083151502179055509050503373ffffffffffffffffffffffffffffffffffffffff166002547f05f9bf100dd0ca9f37f08e0526690286d357ed7d6c5a4ac29730440b6e2dfd628787856040516115719392919061288a565b60405180910390a35050505050565b60605f5f90505f600190505b60025481116116095760035f8281526020019081526020015f206007015f9054906101000a900460ff161580156115e2575060035f8281526020019081526020015f2060070160019054906101000a900460ff16155b156115f65781806115f290612810565b9250505b808061160190612810565b91505061158c565b505f8167ffffffffffffffff811115611625576116246128bf565b5b60405190808252806020026020018201604052801561165e57816020015b61164b61183d565b8152602001906001900390816116435790505b5090505f5f90505f600190505b60025481116118335760035f8281526020019081526020015f206007015f9054906101000a900460ff161580156116c1575060035f8281526020019081526020015f2060070160019054906101000a900460ff16155b156118205760035f8281526020019081526020015f20604051806101200160405290815f8201548152602001600182015f9054906101000a900473ffffffffffffffffffffffffffffffffffffffff1673ffffffffffffffffffffffffffffffffffffffff1673ffffffffffffffffffffffffffffffffffffffff168152602001600282015481526020016003820154815260200160048201548152602001600582015f9054906101000a900473ffffffffffffffffffffffffffffffffffffffff1673ffffffffffffffffffffffffffffffffffffffff1673ffffffffffffffffffffffffffffffffffffffff16815260200160068201548152602001600782015f9054906101000a900460ff161515151581526020016007820160019054906101000a900460ff161515151581525050838381518110611806576118056128ec565b5b6020026020010181905250818061181c90612810565b9250505b808061182b90612810565b91505061166b565b5081935050505090565b6040518061012001604052805f81526020015f73ffffffffffffffffffffffffffffffffffffffff1681526020015f81526020015f81526020015f81526020015f73ffffffffffffffffffffffffffffffffffffffff1681526020015f81526020015f151581526020015f151581525090565b5f819050919050565b6118c2816118b0565b82525050565b5f6020820190506118db5f8301846118b9565b92915050565b5f73ffffffffffffffffffffffffffffffffffffffff82169050919050565b5f819050919050565b5f61192361191e611919846118e1565b611900565b6118e1565b9050919050565b5f61193482611909565b9050919050565b5f6119458261192a565b9050919050565b6119558161193b565b82525050565b5f60208201905061196e5f83018461194c565b92915050565b5f5ffd5b611981816118b0565b811461198b575f5ffd5b50565b5f8135905061199c81611978565b92915050565b5f602082840312156119b7576119b6611974565b5b5f6119c48482850161198e565b91505092915050565b5f6119d7826118e1565b9050919050565b6119e7816119cd565b82525050565b5f8115159050919050565b611a01816119ed565b82525050565b5f61012082019050611a1b5f83018c6118b9565b611a28602083018b6119de565b611a35604083018a6118b9565b611a4260608301896118b9565b611a4f60808301886118b9565b611a5c60a08301876119de565b611a6960c08301866118b9565b611a7660e08301856119f8565b611a846101008301846119f8565b9a9950505050505050505050565b611a9b816118b0565b82525050565b611aaa816119cd565b82525050565b611ab9816119ed565b82525050565b61012082015f820151611ad45f850182611a92565b506020820151611ae76020850182611aa1565b506040820151611afa6040850182611a92565b506060820151611b0d6060850182611a92565b506080820151611b206080850182611a92565b5060a0820151611b3360a0850182611aa1565b5060c0820151611b4660c0850182611a92565b5060e0820151611b5960e0850182611ab0565b50610100820151611b6e610100850182611ab0565b50505050565b5f61012082019050611b885f830184611abf565b92915050565b5f602082019050611ba15f8301846119de565b92915050565b5f5f5f60608486031215611bbe57611bbd611974565b5b5f611bcb8682870161198e565b9350506020611bdc8682870161198e565b9250506040611bed8682870161198e565b9150509250925092565b5f81519050919050565b5f82825260208201905092915050565b5f819050602082019050919050565b61012082015f820151611c355f850182611a92565b506020820151611c486020850182611aa1565b506040820151611c5b6040850182611a92565b506060820151611c6e6060850182611a92565b506080820151611c816080850182611a92565b5060a0820151611c9460a0850182611aa1565b5060c0820151611ca760c0850182611a92565b5060e0820151611cba60e0850182611ab0565b50610100820151611ccf610100850182611ab0565b50505050565b5f611ce08383611c20565b6101208301905092915050565b5f602082019050919050565b5f611d0382611bf7565b611d0d8185611c01565b9350611d1883611c11565b805f5b83811015611d48578151611d2f8882611cd5565b9750611d3a83611ced565b925050600181019050611d1b565b5085935050505092915050565b5f6020820190508181035f830152611d6d8184611cf9565b905092915050565b5f82825260208201905092915050565b7f4f6e6c792073656c6c65722063616e2063616e63656c000000000000000000005f82015250565b5f611db9601683611d75565b9150611dc482611d85565b602082019050919050565b5f6020820190508181035f830152611de681611dad565b9050919050565b7f41756374696f6e20616c726561647920656e64656400000000000000000000005f82015250565b5f611e21601583611d75565b9150611e2c82611ded565b602082019050919050565b5f6020820190508181035f830152611e4e81611e15565b9050919050565b7f41756374696f6e20616c72656164792063616e63656c6c6564000000000000005f82015250565b5f611e89601983611d75565b9150611e9482611e55565b602082019050919050565b5f6020820190508181035f830152611eb681611e7d565b9050919050565b7f43616e6e6f742063616e63656c207769746820616374697665206269647300005f82015250565b5f611ef1601e83611d75565b9150611efc82611ebd565b602082019050919050565b5f6020820190508181035f830152611f1e81611ee5565b9050919050565b5f60ff82169050919050565b611f3a81611f25565b8114611f44575f5ffd5b50565b5f81519050611f5581611f31565b92915050565b5f60208284031215611f7057611f6f611974565b5b5f611f7d84828501611f47565b91505092915050565b7f4e487b71000000000000000000000000000000000000000000000000000000005f52601160045260245ffd5b5f8160011c9050919050565b5f5f8291508390505b600185111561200857808604811115611fe457611fe3611f86565b5b6001851615611ff35780820291505b808102905061200185611fb3565b9450611fc8565b94509492505050565b5f8261202057600190506120db565b8161202d575f90506120db565b8160018114612043576002811461204d5761207c565b60019150506120db565b60ff84111561205f5761205e611f86565b5b8360020a91508482111561207657612075611f86565b5b506120db565b5060208310610133831016604e8410600b84101617156120b15782820a9050838111156120ac576120ab611f86565b5b6120db565b6120be8484846001611fbf565b925090508184048111156120d5576120d4611f86565b5b81810290505b9392505050565b5f6120ec826118b0565b91506120f783611f25565b92506121247fffffffffffffffffffffffffffffffffffffffffffffffffffffffffffffffff8484612011565b905092915050565b5f612136826118b0565b9150612141836118b0565b925082820261214f816118b0565b9150828204841483151761216657612165611f86565b5b5092915050565b5f6040820190506121805f8301856119de565b61218d60208301846118b9565b9392505050565b61219d816119ed565b81146121a7575f5ffd5b50565b5f815190506121b881612194565b92915050565b5f602082840312156121d3576121d2611974565b5b5f6121e0848285016121aa565b91505092915050565b7f41756374696f6e2068617320656e6465640000000000000000000000000000005f82015250565b5f61221d601183611d75565b9150612228826121e9565b602082019050919050565b5f6020820190508181035f83015261224a81612211565b9050919050565b7f41756374696f6e207761732063616e63656c6c656400000000000000000000005f82015250565b5f612285601583611d75565b915061229082612251565b602082019050919050565b5f6020820190508181035f8301526122b281612279565b9050919050565b7f41756374696f6e2074696d6520657870697265640000000000000000000000005f82015250565b5f6122ed601483611d75565b91506122f8826122b9565b602082019050919050565b5f6020820190508181035f83015261231a816122e1565b9050919050565b7f53656c6c65722063616e6e6f74206269640000000000000000000000000000005f82015250565b5f612355601183611d75565b915061236082612321565b602082019050919050565b5f6020820190508181035f83015261238281612349565b9050919050565b7f4269642062656c6f77207374617274696e6720707269636500000000000000005f82015250565b5f6123bd601883611d75565b91506123c882612389565b602082019050919050565b5f6020820190508181035f8301526123ea816123b1565b9050919050565b7f426964206d75737420626520686967686572207468616e2063757272656e74205f8201527f6869676865737400000000000000000000000000000000000000000000000000602082015250565b5f61244b602783611d75565b9150612456826123f1565b604082019050919050565b5f6020820190508181035f8301526124788161243f565b9050919050565b7f41756374696f6e206e6f742079657420657870697265640000000000000000005f82015250565b5f6124b3601783611d75565b91506124be8261247f565b602082019050919050565b5f6020820190508181035f8301526124e0816124a7565b9050919050565b5f6040820190506124fa5f8301856118b9565b61250760208301846118b9565b9392505050565b5f819050919050565b5f61253161252c6125278461250e565b611900565b6118b0565b9050919050565b61254181612517565b82525050565b5f60408201905061255a5f8301856118b9565b6125676020830184612538565b9392505050565b7f416d6f756e74206d7573742062652067726561746572207468616e20300000005f82015250565b5f6125a2601d83611d75565b91506125ad8261256e565b602082019050919050565b5f6020820190508181035f8301526125cf81612596565b9050919050565b7f5374617274696e67207072696365206d757374206265206772656174657220745f8201527f68616e2030000000000000000000000000000000000000000000000000000000602082015250565b5f612630602583611d75565b915061263b826125d6565b604082019050919050565b5f6020820190508181035f83015261265d81612624565b9050919050565b7f4475726174696f6e206d7573742062652067726561746572207468616e2030005f82015250565b5f612698601f83611d75565b91506126a382612664565b602082019050919050565b5f6020820190508181035f8301526126c58161268c565b9050919050565b7f4475726174696f6e2063616e6e6f742065786365656420323420686f757273005f82015250565b5f612700601f83611d75565b915061270b826126cc565b602082019050919050565b5f6020820190508181035f83015261272d816126f4565b9050919050565b5f8151905061274281611978565b92915050565b5f6020828403121561275d5761275c611974565b5b5f61276a84828501612734565b91505092915050565b7f496e73756666696369656e7420746f6b656e2062616c616e63650000000000005f82015250565b5f6127a7601a83611d75565b91506127b282612773565b602082019050919050565b5f6020820190508181035f8301526127d48161279b565b9050919050565b5f6060820190506127ee5f8301866119de565b6127fb60208301856119de565b61280860408301846118b9565b949350505050565b5f61281a826118b0565b91507fffffffffffffffffffffffffffffffffffffffffffffffffffffffffffffffff820361284c5761284b611f86565b5b600182019050919050565b5f612861826118b0565b915061286c836118b0565b925082820190508082111561288457612883611f86565b5b92915050565b5f60608201905061289d5f8301866118b9565b6128aa60208301856118b9565b6128b760408301846118b9565b949350505050565b7f4e487b71000000000000000000000000000000000000000000000000000000005f52604160045260245ffd5b7f4e487b71000000000000000000000000000000000000000000000000000000005f52603260045260245ffdfea264697066735822122039a70655666c14be72d8eb4a6d2af0eded023ba6502afadf83dca4289b2fd3dc64736f6c634300081c0033",
  "linkReferences": {},
  "deployedLinkReferences": {},
  "immutableReferences": {},
  "inputSourceName": "project/contracts/EnergyAuction.sol",
  "buildInfoId": "solc-0_8_28-f431a39764ab22d8c38882b0ce8472a43f3507bf"
}