{
  "_format": "hh3-artifact-1",
  "contractName": "Marketplace",
  "sourceName": "contracts/Marketplace.sol",
  "abi": [
    {
      "inputs": [
        {
          "internalType": "address",
          "name": "_energyTokenAddress",
          "type": "address"
        }
      ],
      "stateMutability": "nonpayable",
      "type": "constructor"
    },
    {
      "anonymous": false,
      "inputs": [
        {
          "indexed": true,
          "internalType": "uint256",
          "name": "listingId",
          "type": "uint256"
        },
        {
          "indexed": true,
          "internalType": "address",
          "name": "seller",
          "type": "address"
        },
        {
          "indexed": false,
          "internalType": "uint256",
          "name": "amount",
          "type": "uint256"
        },
        {
          "indexed": false,
          "internalType": "uint256",
          "name": "pricePerUnit",
          "type": "uint256"
        }
      ],
      "name": "EnergyListed",
      "type": "event"
    },
    {
      "anonymous": false,
      "inputs": [
        {
          "indexed": true,
          "internalType": "uint256",
          "name": "listingId",
          "type": "uint256"
        },
        {
          "indexed": true,
          "internalType": "address",
          "name": "buyer",
          "type": "address"
        },
        {
          "indexed": true,
          "internalType": "address",
          "name": "seller",
          "type": "address"
        },
        {
          "indexed": false,
          "internalType": "uint256",
          "name": "amount",
          "type": "uint256"
        },
        {
          "indexed": false,
          "internalType": "uint256",
          "name": "totalPrice",
          "type": "uint256"
        }
      ],
      "name": "EnergyPurchased",
      "type": "event"
    },
    {
      "anonymous": false,
      "inputs": [
        {
          "indexed": true,
          "internalType": "uint256",
          "name": "listingId",
          "type": "uint256"
        },
        {
          "indexed": true,
          "internalType": "address",
          "name": "seller",
          "type": "address"
        }
      ],
      "name": "ListingCancelled",
      "type": "event"
    },
    {
      "inputs": [
        {
          "internalType": "uint256",
          "name": "listingId",
          "type": "uint256"
        },
        {
          "internalType": "uint256",
          "name": "amountToBuy",
          "type": "uint256"
        }
      ],
      "name": "buyEnergy",
      "outputs": [],
      "stateMutability": "payable",
      "type": "function"
    },
    {
      "inputs": [
        {
          "internalType": "uint256",
          "name": "listingId",
          "type": "uint256"
        }
      ],
      "name": "cancelListing",
      "outputs": [],
      "stateMutability": "nonpayable",
      "type": "function"
    },
    {
      "inputs": [],
      "name": "energyToken",
      "outputs": [
        {
          "internalType": "contract EnergyToken",
          "name": "",
          "type": "address"
        }
      ],
      "stateMutability": "view",
      "type": "function"
    },
    {
      "inputs": [],
      "name": "getActiveListings",
      "outputs": [
        {
          "components": [
            {
              "internalType": "uint256",
              "name": "id",
              "type": "uint256"
            },
            {
              "internalType": "address",
              "name": "seller",
              "type": "address"
            },
            {
              "internalType": "uint256",
              "name": "amount",
              "type": "uint256"
            },
            {
              "internalType": "uint256",
              "name": "pricePerUnit",
              "type": "uint256"
            },
            {
              "internalType": "bool",
              "name": "isActive",
              "type": "bool"
            }
          ],
          "internalType": "struct Marketplace.Listing[]",
          "name": "",
          "type": "tuple[]"
        }
      ],
      "stateMutability": "view",
      "type": "function"
    },
    {
      "inputs": [
        {
          "internalType": "uint256",
          "name": "amount",
          "type": "uint256"
        },
        {
          "internalType": "uint256",
          "name": "pricePerUnit",
          "type": "uint256"
        }
      ],
      "name": "listEnergy",
      "outputs": [],
      "stateMutability": "nonpayable",
      "type": "function"
    },
    {
      "inputs": [],
      "name": "listingCount",
      "outputs": [
        {
          "internalType": "uint256",
          "name": "",
          "type": "uint256"
        }
      ],
      "stateMutability": "view",
      "type": "function"
    },
    {
      "inputs": [
        {
          "internalType": "uint256",
          "name": "",
          "type": "uint256"
        }
      ],
      "name": "listings",
      "outputs": [
        {
          "internalType": "uint256",
          "name": "id",
          "type": "uint256"
        },
        {
          "internalType": "address",
          "name": "seller",
          "type": "address"
        },
        {
          "internalType": "uint256",
          "name": "amount",
          "type": "uint256"
        },
        {
          "internalType": "uint256",
          "name": "pricePerUnit",
          "type": "uint256"
        },
        {
          "internalType": "bool",
          "name": "isActive",
          "type": "bool"
        }
      ],
      "stateMutability": "view",
      "type": "function"
    },
    {
      "inputs": [],
      "name": "owner",
      "outputs": [
        {
          "internalType": "address",
          "name": "",
          "type": "address"
        }
      ],
      "stateMutability": "view",
      "type": "function"
    }
  ],
  "bytecode": "0x6080604052348015600e575f5ffd5b50604051610f94380380610f94833981016040819052602b916057565b5f80546001600160a01b039092166001600160a01b031992831617905560018054909116331790556082565b5f602082840312156066575f5ffd5b81516001600160a01b0381168114607b575f5ffd5b9392505050565b610f058061008f5f395ff3fe608060405260043610610079575f3560e01c8063a9b07c261161004c578063a9b07c2614610119578063c8a9fb5e1461013c578063cdb6d52d1461015b578063de74e57b1461016e575f5ffd5b8063305a67a81461007d5780634ec7fb811461009e57806387c35bc0146100d95780638da5cb5b146100fa575b5f5ffd5b348015610088575f5ffd5b5061009c610097366004610c50565b6101f6565b005b3480156100a9575f5ffd5b505f546100bc906001600160a01b031681565b6040516001600160a01b0390911681526020015b60405180910390f35b3480156100e4575f5ffd5b506100ed6103df565b6040516100d09190610c67565b348015610105575f5ffd5b506001546100bc906001600160a01b031681565b348015610124575f5ffd5b5061012e60025481565b6040519081526020016100d0565b348015610147575f5ffd5b5061009c610156366004610ce1565b610574565b61009c610169366004610ce1565b6108aa565b348015610179575f5ffd5b506101c4610188366004610c50565b600360208190525f91825260409091208054600182015460028301549383015460049093015491936001600160a01b0390911692909160ff1685565b604080519586526001600160a01b0390941660208601529284019190915260608301521515608082015260a0016100d0565b5f818152600360205260409020600481015460ff166102545760405162461bcd60e51b81526020600482015260156024820152744c697374696e67206973206e6f742061637469766560581b60448201526064015b60405180910390fd5b60018101546001600160a01b031633146102a95760405162461bcd60e51b815260206004820152601660248201527513db9b1e481cd95b1b195c8818d85b8818d85b98d95b60521b604482015260640161024b565b6004808201805460ff191690555f80546040805163313ce56760e01b8152905192936001600160a01b039092169263313ce567928281019260209291908290030181865afa1580156102fd573d5f5f3e3d5ffd5b505050506040513d601f19601f820116820180604052508101906103219190610d01565b61032c90600a610e21565b826002015461033b9190610e2f565b5f5460405163a9059cbb60e01b8152336004820152602481018390529192506001600160a01b03169063a9059cbb906044016020604051808303815f875af1158015610389573d5f5f3e3d5ffd5b505050506040513d601f19601f820116820180604052508101906103ad9190610e46565b50604051339084907f8e25282255ab31897df2b0456bb993ac7f84d376861aefd84901d2d63a7428a2905f90a3505050565b60605f60015b6002548111610427575f8181526003602052604090206004015460ff1615610415578161041181610e65565b9250505b8061041f81610e65565b9150506103e5565b505f8167ffffffffffffffff81111561044257610442610e7d565b6040519080825280602002602001820160405280156104ab57816020015b6104986040518060a001604052805f81526020015f6001600160a01b031681526020015f81526020015f81526020015f151581525090565b8152602001906001900390816104605790505b5090505f60015b600254811161056b575f8181526003602052604090206004015460ff1615610559575f81815260036020818152604092839020835160a0810185528154815260018201546001600160a01b03169281019290925260028101549382019390935290820154606082015260049091015460ff1615156080820152835184908490811061053f5761053f610e91565b6020026020010181905250818061055590610e65565b9250505b8061056381610e65565b9150506104b2565b50909392505050565b5f82116105c35760405162461bcd60e51b815260206004820152601d60248201527f416d6f756e74206d7573742062652067726561746572207468616e2030000000604482015260640161024b565b5f81116106125760405162461bcd60e51b815260206004820152601c60248201527f5072696365206d7573742062652067726561746572207468616e203000000000604482015260640161024b565b5f5f5f9054906101000a90046001600160a01b03166001600160a01b031663313ce5676040518163ffffffff1660e01b8152600401602060405180830381865afa158015610662573d5f5f3e3d5ffd5b505050506040513d601f19601f820116820180604052508101906106869190610d01565b61069190600a610e21565b61069b9084610e2f565b5f546040516370a0823160e01b815233600482015291925082916001600160a01b03909116906370a0823190602401602060405180830381865afa1580156106e5573d5f5f3e3d5ffd5b505050506040513d601f19601f820116820180604052508101906107099190610ea5565b10156107575760405162461bcd60e51b815260206004820152601a60248201527f496e73756666696369656e7420746f6b656e2062616c616e6365000000000000604482015260640161024b565b5f546040516323b872dd60e01b8152336004820152306024820152604481018390526001600160a01b03909116906323b872dd906064016020604051808303815f875af11580156107aa573d5f5f3e3d5ffd5b505050506040513d601f19601f820116820180604052508101906107ce9190610e46565b5060028054905f6107de83610e65565b90915550506040805160a081018252600280548083523360208085018281528587018a8152606087018a81526001608089018181525f9788526003808752978b902099518a55935190890180546001600160a01b0319166001600160a01b03909216919091179055905187870155519386019390935591516004909401805460ff1916941515949094179093559054835187815291820186905291927fdce237255d5bd98b57c816861c3b76c8e47e10382084f482135e29cb83a534be910160405180910390a3505050565b5f828152600360205260409020600481015460ff166109035760405162461bcd60e51b81526020600482015260156024820152744c697374696e67206973206e6f742061637469766560581b604482015260640161024b565b6001810154336001600160a01b03909116036109615760405162461bcd60e51b815260206004820152601b60248201527f43616e6e6f742062757920796f7572206f776e206c697374696e670000000000604482015260640161024b565b5f82116109b05760405162461bcd60e51b815260206004820152601d60248201527f416d6f756e74206d7573742062652067726561746572207468616e2030000000604482015260640161024b565b80600201548211156109fd5760405162461bcd60e51b8152602060048201526016602482015275416d6f756e742065786365656473206c697374696e6760501b604482015260640161024b565b5f816003015483610a0e9190610e2f565b905080341015610a585760405162461bcd60e51b8152602060048201526015602482015274125b9cdd59999a58da595b9d08115512081cd95b9d605a1b604482015260640161024b565b82826002015f828254610a6b9190610ebc565b909155505060028201545f03610a885760048201805460ff191690555b5f5f5f9054906101000a90046001600160a01b03166001600160a01b031663313ce5676040518163ffffffff1660e01b8152600401602060405180830381865afa158015610ad8573d5f5f3e3d5ffd5b505050506040513d601f19601f82011682018060405250810190610afc9190610d01565b610b0790600a610e21565b610b119085610e2f565b5f5460405163a9059cbb60e01b8152336004820152602481018390529192506001600160a01b03169063a9059cbb906044016020604051808303815f875af1158015610b5f573d5f5f3e3d5ffd5b505050506040513d601f19601f82011682018060405250810190610b839190610e46565b5060018301546040516001600160a01b039091169083156108fc029084905f818181858888f19350505050158015610bbd573d5f5f3e3d5ffd5b5081341115610bfb57336108fc610bd48434610ebc565b6040518115909202915f818181858888f19350505050158015610bf9573d5f5f3e3d5ffd5b505b600183015460408051868152602081018590526001600160a01b0390921691339188917f12cf6843df230dff5c8306a3113a5aac775144198c3f4dfe127764b6db1fbb01910160405180910390a45050505050565b5f60208284031215610c60575f5ffd5b5035919050565b602080825282518282018190525f918401906040840190835b81811015610cd6578351805184526020808201516001600160a01b03168186015260408083015190860152606080830151908601526080918201511515918501919091529093019260a090920191600101610c80565b509095945050505050565b5f5f60408385031215610cf2575f5ffd5b50508035926020909101359150565b5f60208284031215610d11575f5ffd5b815160ff81168114610d21575f5ffd5b9392505050565b634e487b7160e01b5f52601160045260245ffd5b6001815b6001841115610d7757808504811115610d5b57610d5b610d28565b6001841615610d6957908102905b60019390931c928002610d40565b935093915050565b5f82610d8d57506001610e1b565b81610d9957505f610e1b565b8160018114610daf5760028114610db957610dd5565b6001915050610e1b565b60ff841115610dca57610dca610d28565b50506001821b610e1b565b5060208310610133831016604e8410600b8410161715610df8575081810a610e1b565b610e045f198484610d3c565b805f1904821115610e1757610e17610d28565b0290505b92915050565b5f610d2160ff841683610d7f565b8082028115828204841417610e1b57610e1b610d28565b5f60208284031215610e56575f5ffd5b81518015158114610d21575f5ffd5b5f60018201610e7657610e76610d28565b5060010190565b634e487b7160e01b5f52604160045260245ffd5b634e487b7160e01b5f52603260045260245ffd5b5f60208284031215610eb5575f5ffd5b5051919050565b81810381811115610e1b57610e1b610d2856fea2646970667358221220e645ac3e0e2d84e052c348e547ad909e57e1b93eff13f88292b77195e1ac637764736f6c634300081c0033",
  "linkReferences": {},
  "deployedLinkReferences": {},
  "immutableReferences": {},
  "inputSourceName": "project/contracts/Marketplace.sol",
  "buildInfoId": "solc-0_8_28-4f13ecf628ee33e78421e549f05b312430ea4bd6"
}